{
  "address": "0x554046176F5B187E1273dA9784787696837009AE",
  "abi": [
    {
      "inputs": [
        {
          "internalType": "address",
          "name": "_noundersDAO",
          "type": "address"
        },
        {
          "internalType": "address",
          "name": "_minter",
          "type": "address"
        },
        {
          "internalType": "contract INounsDescriptor",
          "name": "_descriptor",
          "type": "address"
        },
        {
          "internalType": "contract INounsSeeder",
          "name": "_seeder",
          "type": "address"
        },
        {
          "internalType": "contract IProxyRegistry",
          "name": "_proxyRegistry",
          "type": "address"
        }
      ],
      "stateMutability": "nonpayable",
      "type": "constructor"
    },
    {
      "anonymous": false,
      "inputs": [
        {
          "indexed": true,
          "internalType": "address",
          "name": "owner",
          "type": "address"
        },
        {
          "indexed": true,
          "internalType": "address",
          "name": "approved",
          "type": "address"
        },
        {
          "indexed": true,
          "internalType": "uint256",
          "name": "tokenId",
          "type": "uint256"
        }
      ],
      "name": "Approval",
      "type": "event"
    },
    {
      "anonymous": false,
      "inputs": [
        {
          "indexed": true,
          "internalType": "address",
          "name": "owner",
          "type": "address"
        },
        {
          "indexed": true,
          "internalType": "address",
          "name": "operator",
          "type": "address"
        },
        {
          "indexed": false,
          "internalType": "bool",
          "name": "approved",
          "type": "bool"
        }
      ],
      "name": "ApprovalForAll",
      "type": "event"
    },
    {
      "anonymous": false,
      "inputs": [
        {
          "indexed": true,
          "internalType": "address",
          "name": "delegator",
          "type": "address"
        },
        {
          "indexed": true,
          "internalType": "address",
          "name": "fromDelegate",
          "type": "address"
        },
        {
          "indexed": true,
          "internalType": "address",
          "name": "toDelegate",
          "type": "address"
        }
      ],
      "name": "DelegateChanged",
      "type": "event"
    },
    {
      "anonymous": false,
      "inputs": [
        {
          "indexed": true,
          "internalType": "address",
          "name": "delegate",
          "type": "address"
        },
        {
          "indexed": false,
          "internalType": "uint256",
          "name": "previousBalance",
          "type": "uint256"
        },
        {
          "indexed": false,
          "internalType": "uint256",
          "name": "newBalance",
          "type": "uint256"
        }
      ],
      "name": "DelegateVotesChanged",
      "type": "event"
    },
    {
      "anonymous": false,
      "inputs": [],
      "name": "DescriptorLocked",
      "type": "event"
    },
    {
      "anonymous": false,
      "inputs": [
        {
          "indexed": false,
          "internalType": "contract INounsDescriptor",
          "name": "descriptor",
          "type": "address"
        }
      ],
      "name": "DescriptorUpdated",
      "type": "event"
    },
    {
      "anonymous": false,
      "inputs": [],
      "name": "MinterLocked",
      "type": "event"
    },
    {
      "anonymous": false,
      "inputs": [
        {
          "indexed": false,
          "internalType": "address",
          "name": "minter",
          "type": "address"
        }
      ],
      "name": "MinterUpdated",
      "type": "event"
    },
    {
      "anonymous": false,
      "inputs": [
        {
          "indexed": true,
          "internalType": "uint256",
          "name": "tokenId",
          "type": "uint256"
        }
      ],
      "name": "NounBurned",
      "type": "event"
    },
    {
      "anonymous": false,
      "inputs": [
        {
          "indexed": true,
          "internalType": "uint256",
          "name": "tokenId",
          "type": "uint256"
        },
        {
          "components": [
            {
              "internalType": "uint48",
              "name": "background",
              "type": "uint48"
            },
            {
              "internalType": "uint48",
              "name": "body",
              "type": "uint48"
            },
            {
              "internalType": "uint48",
              "name": "accessory",
              "type": "uint48"
            },
            {
              "internalType": "uint48",
              "name": "head",
              "type": "uint48"
            },
            {
              "internalType": "uint48",
              "name": "glasses",
              "type": "uint48"
            }
          ],
          "indexed": false,
          "internalType": "struct INounsSeeder.Seed",
          "name": "seed",
          "type": "tuple"
        }
      ],
      "name": "NounCreated",
      "type": "event"
    },
    {
      "anonymous": false,
      "inputs": [
        {
          "indexed": false,
          "internalType": "address",
          "name": "noundersDAO",
          "type": "address"
        }
      ],
      "name": "NoundersDAOUpdated",
      "type": "event"
    },
    {
      "anonymous": false,
      "inputs": [
        {
          "indexed": true,
          "internalType": "address",
          "name": "previousOwner",
          "type": "address"
        },
        {
          "indexed": true,
          "internalType": "address",
          "name": "newOwner",
          "type": "address"
        }
      ],
      "name": "OwnershipTransferred",
      "type": "event"
    },
    {
      "anonymous": false,
      "inputs": [],
      "name": "SeederLocked",
      "type": "event"
    },
    {
      "anonymous": false,
      "inputs": [
        {
          "indexed": false,
          "internalType": "contract INounsSeeder",
          "name": "seeder",
          "type": "address"
        }
      ],
      "name": "SeederUpdated",
      "type": "event"
    },
    {
      "anonymous": false,
      "inputs": [
        {
          "indexed": true,
          "internalType": "address",
          "name": "from",
          "type": "address"
        },
        {
          "indexed": true,
          "internalType": "address",
          "name": "to",
          "type": "address"
        },
        {
          "indexed": true,
          "internalType": "uint256",
          "name": "tokenId",
          "type": "uint256"
        }
      ],
      "name": "Transfer",
      "type": "event"
    },
    {
      "inputs": [],
      "name": "DELEGATION_TYPEHASH",
      "outputs": [
        {
          "internalType": "bytes32",
          "name": "",
          "type": "bytes32"
        }
      ],
      "stateMutability": "view",
      "type": "function"
    },
    {
      "inputs": [],
      "name": "DOMAIN_TYPEHASH",
      "outputs": [
        {
          "internalType": "bytes32",
          "name": "",
          "type": "bytes32"
        }
      ],
      "stateMutability": "view",
      "type": "function"
    },
    {
      "inputs": [
        {
          "internalType": "address",
          "name": "to",
          "type": "address"
        },
        {
          "internalType": "uint256",
          "name": "tokenId",
          "type": "uint256"
        }
      ],
      "name": "approve",
      "outputs": [],
      "stateMutability": "nonpayable",
      "type": "function"
    },
    {
      "inputs": [
        {
          "internalType": "address",
          "name": "owner",
          "type": "address"
        }
      ],
      "name": "balanceOf",
      "outputs": [
        {
          "internalType": "uint256",
          "name": "",
          "type": "uint256"
        }
      ],
      "stateMutability": "view",
      "type": "function"
    },
    {
      "inputs": [
        {
          "internalType": "uint256",
          "name": "nounId",
          "type": "uint256"
        }
      ],
      "name": "burn",
      "outputs": [],
      "stateMutability": "nonpayable",
      "type": "function"
    },
    {
      "inputs": [
        {
          "internalType": "address",
          "name": "",
          "type": "address"
        },
        {
          "internalType": "uint32",
          "name": "",
          "type": "uint32"
        }
      ],
      "name": "checkpoints",
      "outputs": [
        {
          "internalType": "uint32",
          "name": "fromBlock",
          "type": "uint32"
        },
        {
          "internalType": "uint96",
          "name": "votes",
          "type": "uint96"
        }
      ],
      "stateMutability": "view",
      "type": "function"
    },
    {
      "inputs": [],
      "name": "contractURI",
      "outputs": [
        {
          "internalType": "string",
          "name": "",
          "type": "string"
        }
      ],
      "stateMutability": "view",
      "type": "function"
    },
    {
      "inputs": [
        {
          "internalType": "uint256",
          "name": "tokenId",
          "type": "uint256"
        }
      ],
      "name": "dataURI",
      "outputs": [
        {
          "internalType": "string",
          "name": "",
          "type": "string"
        }
      ],
      "stateMutability": "view",
      "type": "function"
    },
    {
      "inputs": [],
      "name": "decimals",
      "outputs": [
        {
          "internalType": "uint8",
          "name": "",
          "type": "uint8"
        }
      ],
      "stateMutability": "view",
      "type": "function"
    },
    {
      "inputs": [
        {
          "internalType": "address",
          "name": "delegatee",
          "type": "address"
        }
      ],
      "name": "delegate",
      "outputs": [],
      "stateMutability": "nonpayable",
      "type": "function"
    },
    {
      "inputs": [
        {
          "internalType": "address",
          "name": "delegatee",
          "type": "address"
        },
        {
          "internalType": "uint256",
          "name": "nonce",
          "type": "uint256"
        },
        {
          "internalType": "uint256",
          "name": "expiry",
          "type": "uint256"
        },
        {
          "internalType": "uint8",
          "name": "v",
          "type": "uint8"
        },
        {
          "internalType": "bytes32",
          "name": "r",
          "type": "bytes32"
        },
        {
          "internalType": "bytes32",
          "name": "s",
          "type": "bytes32"
        }
      ],
      "name": "delegateBySig",
      "outputs": [],
      "stateMutability": "nonpayable",
      "type": "function"
    },
    {
      "inputs": [
        {
          "internalType": "address",
          "name": "delegator",
          "type": "address"
        }
      ],
      "name": "delegates",
      "outputs": [
        {
          "internalType": "address",
          "name": "",
          "type": "address"
        }
      ],
      "stateMutability": "view",
      "type": "function"
    },
    {
      "inputs": [],
      "name": "descriptor",
      "outputs": [
        {
          "internalType": "contract INounsDescriptor",
          "name": "",
          "type": "address"
        }
      ],
      "stateMutability": "view",
      "type": "function"
    },
    {
      "inputs": [
        {
          "internalType": "uint256",
          "name": "tokenId",
          "type": "uint256"
        }
      ],
      "name": "getApproved",
      "outputs": [
        {
          "internalType": "address",
          "name": "",
          "type": "address"
        }
      ],
      "stateMutability": "view",
      "type": "function"
    },
    {
      "inputs": [
        {
          "internalType": "address",
          "name": "account",
          "type": "address"
        }
      ],
      "name": "getCurrentVotes",
      "outputs": [
        {
          "internalType": "uint96",
          "name": "",
          "type": "uint96"
        }
      ],
      "stateMutability": "view",
      "type": "function"
    },
    {
      "inputs": [
        {
          "internalType": "address",
          "name": "account",
          "type": "address"
        },
        {
          "internalType": "uint256",
          "name": "blockNumber",
          "type": "uint256"
        }
      ],
      "name": "getPriorVotes",
      "outputs": [
        {
          "internalType": "uint96",
          "name": "",
          "type": "uint96"
        }
      ],
      "stateMutability": "view",
      "type": "function"
    },
    {
      "inputs": [
        {
          "internalType": "address",
          "name": "owner",
          "type": "address"
        },
        {
          "internalType": "address",
          "name": "operator",
          "type": "address"
        }
      ],
      "name": "isApprovedForAll",
      "outputs": [
        {
          "internalType": "bool",
          "name": "",
          "type": "bool"
        }
      ],
      "stateMutability": "view",
      "type": "function"
    },
    {
      "inputs": [],
      "name": "isDescriptorLocked",
      "outputs": [
        {
          "internalType": "bool",
          "name": "",
          "type": "bool"
        }
      ],
      "stateMutability": "view",
      "type": "function"
    },
    {
      "inputs": [],
      "name": "isMinterLocked",
      "outputs": [
        {
          "internalType": "bool",
          "name": "",
          "type": "bool"
        }
      ],
      "stateMutability": "view",
      "type": "function"
    },
    {
      "inputs": [],
      "name": "isSeederLocked",
      "outputs": [
        {
          "internalType": "bool",
          "name": "",
          "type": "bool"
        }
      ],
      "stateMutability": "view",
      "type": "function"
    },
    {
      "inputs": [],
      "name": "lockDescriptor",
      "outputs": [],
      "stateMutability": "nonpayable",
      "type": "function"
    },
    {
      "inputs": [],
      "name": "lockMinter",
      "outputs": [],
      "stateMutability": "nonpayable",
      "type": "function"
    },
    {
      "inputs": [],
      "name": "lockSeeder",
      "outputs": [],
      "stateMutability": "nonpayable",
      "type": "function"
    },
    {
      "inputs": [],
      "name": "mint",
      "outputs": [
        {
          "internalType": "uint256",
          "name": "",
          "type": "uint256"
        }
      ],
      "stateMutability": "nonpayable",
      "type": "function"
    },
    {
      "inputs": [],
      "name": "minter",
      "outputs": [
        {
          "internalType": "address",
          "name": "",
          "type": "address"
        }
      ],
      "stateMutability": "view",
      "type": "function"
    },
    {
      "inputs": [],
      "name": "name",
      "outputs": [
        {
          "internalType": "string",
          "name": "",
          "type": "string"
        }
      ],
      "stateMutability": "view",
      "type": "function"
    },
    {
      "inputs": [
        {
          "internalType": "address",
          "name": "",
          "type": "address"
        }
      ],
      "name": "nonces",
      "outputs": [
        {
          "internalType": "uint256",
          "name": "",
          "type": "uint256"
        }
      ],
      "stateMutability": "view",
      "type": "function"
    },
    {
      "inputs": [],
      "name": "noundersDAO",
      "outputs": [
        {
          "internalType": "address",
          "name": "",
          "type": "address"
        }
      ],
      "stateMutability": "view",
      "type": "function"
    },
    {
      "inputs": [
        {
          "internalType": "address",
          "name": "",
          "type": "address"
        }
      ],
      "name": "numCheckpoints",
      "outputs": [
        {
          "internalType": "uint32",
          "name": "",
          "type": "uint32"
        }
      ],
      "stateMutability": "view",
      "type": "function"
    },
    {
      "inputs": [],
      "name": "owner",
      "outputs": [
        {
          "internalType": "address",
          "name": "",
          "type": "address"
        }
      ],
      "stateMutability": "view",
      "type": "function"
    },
    {
      "inputs": [
        {
          "internalType": "uint256",
          "name": "tokenId",
          "type": "uint256"
        }
      ],
      "name": "ownerOf",
      "outputs": [
        {
          "internalType": "address",
          "name": "",
          "type": "address"
        }
      ],
      "stateMutability": "view",
      "type": "function"
    },
    {
      "inputs": [],
      "name": "proxyRegistry",
      "outputs": [
        {
          "internalType": "contract IProxyRegistry",
          "name": "",
          "type": "address"
        }
      ],
      "stateMutability": "view",
      "type": "function"
    },
    {
      "inputs": [],
      "name": "renounceOwnership",
      "outputs": [],
      "stateMutability": "nonpayable",
      "type": "function"
    },
    {
      "inputs": [
        {
          "internalType": "address",
          "name": "from",
          "type": "address"
        },
        {
          "internalType": "address",
          "name": "to",
          "type": "address"
        },
        {
          "internalType": "uint256",
          "name": "tokenId",
          "type": "uint256"
        }
      ],
      "name": "safeTransferFrom",
      "outputs": [],
      "stateMutability": "nonpayable",
      "type": "function"
    },
    {
      "inputs": [
        {
          "internalType": "address",
          "name": "from",
          "type": "address"
        },
        {
          "internalType": "address",
          "name": "to",
          "type": "address"
        },
        {
          "internalType": "uint256",
          "name": "tokenId",
          "type": "uint256"
        },
        {
          "internalType": "bytes",
          "name": "_data",
          "type": "bytes"
        }
      ],
      "name": "safeTransferFrom",
      "outputs": [],
      "stateMutability": "nonpayable",
      "type": "function"
    },
    {
      "inputs": [],
      "name": "seeder",
      "outputs": [
        {
          "internalType": "contract INounsSeeder",
          "name": "",
          "type": "address"
        }
      ],
      "stateMutability": "view",
      "type": "function"
    },
    {
      "inputs": [
        {
          "internalType": "uint256",
          "name": "",
          "type": "uint256"
        }
      ],
      "name": "seeds",
      "outputs": [
        {
          "internalType": "uint48",
          "name": "background",
          "type": "uint48"
        },
        {
          "internalType": "uint48",
          "name": "body",
          "type": "uint48"
        },
        {
          "internalType": "uint48",
          "name": "accessory",
          "type": "uint48"
        },
        {
          "internalType": "uint48",
          "name": "head",
          "type": "uint48"
        },
        {
          "internalType": "uint48",
          "name": "glasses",
          "type": "uint48"
        }
      ],
      "stateMutability": "view",
      "type": "function"
    },
    {
      "inputs": [
        {
          "internalType": "address",
          "name": "operator",
          "type": "address"
        },
        {
          "internalType": "bool",
          "name": "approved",
          "type": "bool"
        }
      ],
      "name": "setApprovalForAll",
      "outputs": [],
      "stateMutability": "nonpayable",
      "type": "function"
    },
    {
      "inputs": [
        {
          "internalType": "string",
          "name": "newContractURIHash",
          "type": "string"
        }
      ],
      "name": "setContractURIHash",
      "outputs": [],
      "stateMutability": "nonpayable",
      "type": "function"
    },
    {
      "inputs": [
        {
          "internalType": "contract INounsDescriptor",
          "name": "_descriptor",
          "type": "address"
        }
      ],
      "name": "setDescriptor",
      "outputs": [],
      "stateMutability": "nonpayable",
      "type": "function"
    },
    {
      "inputs": [
        {
          "internalType": "address",
          "name": "_minter",
          "type": "address"
        }
      ],
      "name": "setMinter",
      "outputs": [],
      "stateMutability": "nonpayable",
      "type": "function"
    },
    {
      "inputs": [
        {
          "internalType": "address",
          "name": "_noundersDAO",
          "type": "address"
        }
      ],
      "name": "setNoundersDAO",
      "outputs": [],
      "stateMutability": "nonpayable",
      "type": "function"
    },
    {
      "inputs": [
        {
          "internalType": "contract INounsSeeder",
          "name": "_seeder",
          "type": "address"
        }
      ],
      "name": "setSeeder",
      "outputs": [],
      "stateMutability": "nonpayable",
      "type": "function"
    },
    {
      "inputs": [
        {
          "internalType": "bytes4",
          "name": "interfaceId",
          "type": "bytes4"
        }
      ],
      "name": "supportsInterface",
      "outputs": [
        {
          "internalType": "bool",
          "name": "",
          "type": "bool"
        }
      ],
      "stateMutability": "view",
      "type": "function"
    },
    {
      "inputs": [],
      "name": "symbol",
      "outputs": [
        {
          "internalType": "string",
          "name": "",
          "type": "string"
        }
      ],
      "stateMutability": "view",
      "type": "function"
    },
    {
      "inputs": [
        {
          "internalType": "uint256",
          "name": "index",
          "type": "uint256"
        }
      ],
      "name": "tokenByIndex",
      "outputs": [
        {
          "internalType": "uint256",
          "name": "",
          "type": "uint256"
        }
      ],
      "stateMutability": "view",
      "type": "function"
    },
    {
      "inputs": [
        {
          "internalType": "address",
          "name": "owner",
          "type": "address"
        },
        {
          "internalType": "uint256",
          "name": "index",
          "type": "uint256"
        }
      ],
      "name": "tokenOfOwnerByIndex",
      "outputs": [
        {
          "internalType": "uint256",
          "name": "",
          "type": "uint256"
        }
      ],
      "stateMutability": "view",
      "type": "function"
    },
    {
      "inputs": [
        {
          "internalType": "uint256",
          "name": "tokenId",
          "type": "uint256"
        }
      ],
      "name": "tokenURI",
      "outputs": [
        {
          "internalType": "string",
          "name": "",
          "type": "string"
        }
      ],
      "stateMutability": "view",
      "type": "function"
    },
    {
      "inputs": [],
      "name": "totalSupply",
      "outputs": [
        {
          "internalType": "uint256",
          "name": "",
          "type": "uint256"
        }
      ],
      "stateMutability": "view",
      "type": "function"
    },
    {
      "inputs": [
        {
          "internalType": "address",
          "name": "from",
          "type": "address"
        },
        {
          "internalType": "address",
          "name": "to",
          "type": "address"
        },
        {
          "internalType": "uint256",
          "name": "tokenId",
          "type": "uint256"
        }
      ],
      "name": "transferFrom",
      "outputs": [],
      "stateMutability": "nonpayable",
      "type": "function"
    },
    {
      "inputs": [
        {
          "internalType": "address",
          "name": "newOwner",
          "type": "address"
        }
      ],
      "name": "transferOwnership",
      "outputs": [],
      "stateMutability": "nonpayable",
      "type": "function"
    },
    {
      "inputs": [
        {
          "internalType": "address",
          "name": "delegator",
          "type": "address"
        }
      ],
      "name": "votesToDelegate",
      "outputs": [
        {
          "internalType": "uint96",
          "name": "",
          "type": "uint96"
        }
      ],
      "stateMutability": "view",
      "type": "function"
    }
  ],
  "transactionHash": "0x9c5480160d313ce9d49e4b9ffa9b04d1d09aa0c036f0cdbb4b23dd11cc94092c",
  "args": [
    "0x9700C08dB89246CeE319370b88907c474499cC0C",
    "0x9700C08dB89246CeE319370b88907c474499cC0C",
    "0xf560D84eF2eDF8e8c17Db26e9b2427795DA70cA5",
    "0x8bED3f5c8aD8014EaCba068ac0C61140B82bdae8",
    "0xeCeAa7453a77bFE339B25D9D9E91009CdE71c768"
  ],
  "numDeployments": 1,
  "solcInputHash": "23dfb7880f8b990e16e9118c4af870fd",
  "bytecode": "0x610100604052602e60a08181529062003bb660c03980516200002a9160159160209091019062000189565b503480156200003857600080fd5b5060405162003be438038062003be48339810160408190526200005b9162000248565b604051806040016040528060058152602001644e6f756e7360d81b815250604051806040016040528060048152602001632727aaa760e11b815250620000b0620000aa6200013560201b60201c565b62000139565b8151620000c590600190602085019062000189565b508051620000db90600290602084019062000189565b5050600f80546001600160a01b03199081166001600160a01b039889161790915560108054821696881696909617909555506011805485169386169390931790925560128054909316908416179091551660805262000304565b3390565b600080546001600160a01b038381166001600160a01b0319831681178455604051919092169283917f8be0079c531659141344cd1fd0a4f28419497f9722a3daafe3b4186f6b6457e09190a35050565b8280546200019790620002c8565b90600052602060002090601f016020900481019282620001bb576000855562000206565b82601f10620001d657805160ff191683800117855562000206565b8280016001018555821562000206579182015b8281111562000206578251825591602001919060010190620001e9565b506200021492915062000218565b5090565b5b8082111562000214576000815560010162000219565b6001600160a01b03811681146200024557600080fd5b50565b600080600080600060a086880312156200026157600080fd5b85516200026e816200022f565b602087015190955062000281816200022f565b604087015190945062000294816200022f565b6060870151909350620002a7816200022f565b6080870151909250620002ba816200022f565b809150509295509295909350565b600181811c90821680620002dd57607f821691505b602082108103620002fe57634e487b7160e01b600052602260045260246000fd5b50919050565b60805161388f620003276000396000818161061b0152611b78015261388f6000f3fe608060405234801561001057600080fd5b506004361061030c5760003560e01c80636fcfff451161019d578063c1b8e4e1116100e9578063e8a3d485116100a2578063f0503e801161007c578063f0503e8014610719578063f1127ed8146107a7578063f2fde38b1461080e578063fca3b5aa1461082157600080fd5b8063e8a3d485146106eb578063e9580e91146106f3578063e985e9c51461070657600080fd5b8063c1b8e4e114610663578063c3cda52014610677578063c87b56dd1461068a578063c8fc0c231461069d578063d50b31eb146106b1578063e7a324dc146106c457600080fd5b80638da5cb5b11610156578063b4b5ea5711610130578063b4b5ea5714610603578063b50cbd9f14610616578063b88d4fde1461063d578063baedc1c41461065057600080fd5b80638da5cb5b146105d757806395d89b41146105e8578063a22cb465146105f057600080fd5b80636fcfff451461052e57806370a0823114610569578063715018a61461057c57806376daebe114610584578063782d6fe11461058c5780637ecebe00146105b757600080fd5b8063303e74df1161025c578063587cde1e116102155780635f295a67116101ef5780635f295a67146104ed5780636352211e146104f5578063655932a414610508578063684931ed1461051b57600080fd5b8063587cde1e146104b45780635ac1e3bb146104c75780635c19a95c146104da57600080fd5b8063303e74df14610446578063313ce5671461045957806341b5d0de1461047357806342842e0e1461047b57806342966c681461048e5780634f6ccce7146104a157600080fd5b8063095ea7b3116102c95780631e688e10116102a35780631e688e10146103e557806320606b70146103f957806323b872dd146104205780632f745c591461043357600080fd5b8063095ea7b3146103b45780631249c58b146103c757806318160ddd146103dd57600080fd5b806301b9a3971461031157806301ffc9a714610326578063058df0ab1461034e57806306fdde03146103615780630754617214610376578063081812fc146103a1575b600080fd5b61032461031f366004612e71565b610834565b005b610339610334366004612ea4565b6108e7565b60405190151581526020015b60405180910390f35b61032461035c366004612e71565b610912565b6103696109ba565b6040516103459190612f19565b601054610389906001600160a01b031681565b6040516001600160a01b039091168152602001610345565b6103896103af366004612f2c565b610a4c565b6103246103c2366004612f45565b610ae1565b6103cf610bf6565b604051908152602001610345565b6009546103cf565b60125461033990600160a01b900460ff1681565b6103cf7f8cad95687ba82c2ce50e74f7b754645e5117c3a5bec8151c0726d5857980a86681565b61032461042e366004612f71565b610cc3565b6103cf610441366004612f45565b610cf4565b601154610389906001600160a01b031681565b610461600081565b60405160ff9091168152602001610345565b610324610d8a565b610324610489366004612f71565b610e21565b61032461049c366004612f2c565b610e3c565b6103cf6104af366004612f2c565b610ec8565b6103896104c2366004612e71565b610f5b565b6103696104d5366004612f2c565b610f8d565b6103246104e8366004612e71565b611049565b610324611067565b610389610503366004612f2c565b6110fa565b600f54610389906001600160a01b031681565b601254610389906001600160a01b031681565b61055461053c366004612e71565b600d6020526000908152604090205463ffffffff1681565b60405163ffffffff9091168152602001610345565b6103cf610577366004612e71565b611171565b6103246111f8565b61032461120c565b61059f61059a366004612f45565b61129f565b6040516001600160601b039091168152602001610345565b6103cf6105c5366004612e71565b600e6020526000908152604090205481565b6000546001600160a01b0316610389565b61036961153f565b6103246105fe366004612fb2565b61154e565b61059f610611366004612e71565b611612565b6103897f000000000000000000000000000000000000000000000000000000000000000081565b61032461064b36600461309d565b61168f565b61032461065e36600461311d565b6116c7565b60125461033990600160a81b900460ff1681565b610324610685366004613166565b6116e6565b610369610698366004612f2c565b6119e4565b60125461033990600160b01b900460ff1681565b6103246106bf366004612e71565b611a5b565b6103cf7fe48329057bfd03d55e49b547132e39cffd9c1820ad7b9d4c5307691425d15adf81565b610369611afe565b61059f610701366004612e71565b611b26565b6103396107143660046131c8565b611b52565b61076e610727366004612f2c565b60136020526000908152604090205465ffffffffffff8082169166010000000000008104821691600160601b8204811691600160901b8104821691600160c01b9091041685565b6040805165ffffffffffff968716815294861660208601529285169284019290925283166060830152909116608082015260a001610345565b6107ea6107b53660046131f6565b600c60209081526000928352604080842090915290825290205463ffffffff811690600160201b90046001600160601b031682565b6040805163ffffffff90931683526001600160601b03909116602083015201610345565b61032461081c366004612e71565b611c27565b61032461082f366004612e71565b611c9d565b61083c611d40565b601254600160a81b900460ff16156108925760405162461bcd60e51b815260206004820152601460248201527311195cd8dc9a5c1d1bdc881a5cc81b1bd8dad95960621b60448201526064015b60405180910390fd5b601180546001600160a01b0319166001600160a01b0383169081179091556040519081527f6e66ab22238a5471005895947c8f57db923c2a9c9c73180eff80864c21295c1b906020015b60405180910390a150565b60006001600160e01b0319821663780e9d6360e01b148061090c575061090c82611d9a565b92915050565b600f546001600160a01b0316331461096c5760405162461bcd60e51b815260206004820152601e60248201527f53656e646572206973206e6f7420746865206e6f756e646572732044414f00006044820152606401610889565b600f80546001600160a01b0319166001600160a01b0383169081179091556040519081527f3a0b923617f180781f3530e464cb4a8b9393e69f47607e4eb28d61cd87ce968c906020016108dc565b6060600180546109c99061322d565b80601f01602080910402602001604051908101604052809291908181526020018280546109f59061322d565b8015610a425780601f10610a1757610100808354040283529160200191610a42565b820191906000526020600020905b815481529060010190602001808311610a2557829003601f168201915b5050505050905090565b6000818152600360205260408120546001600160a01b0316610ac55760405162461bcd60e51b815260206004820152602c60248201527f4552433732313a20617070726f76656420717565727920666f72206e6f6e657860448201526b34b9ba32b73a103a37b5b2b760a11b6064820152608401610889565b506000908152600560205260409020546001600160a01b031690565b6000610aec826110fa565b9050806001600160a01b0316836001600160a01b031603610b595760405162461bcd60e51b815260206004820152602160248201527f4552433732313a20617070726f76616c20746f2063757272656e74206f776e656044820152603960f91b6064820152608401610889565b336001600160a01b0382161480610b755750610b758133611b52565b610be75760405162461bcd60e51b815260206004820152603860248201527f4552433732313a20617070726f76652063616c6c6572206973206e6f74206f7760448201527f6e6572206e6f7220617070726f76656420666f7220616c6c00000000000000006064820152608401610889565b610bf18383611dea565b505050565b6010546000906001600160a01b03163314610c4e5760405162461bcd60e51b815260206004820152601860248201527729b2b73232b91034b9903737ba103a34329036b4b73a32b960411b6044820152606401610889565b61071c60145411158015610c6e5750600a601454610c6c919061327d565b155b15610c9e57600f5460148054610c9c926001600160a01b0316916000610c93836132a7565b91905055611e58565b505b60105460148054610cbe926001600160a01b0316916000610c93836132a7565b905090565b610ccd3382612054565b610ce95760405162461bcd60e51b8152600401610889906132c0565b610bf183838361212b565b6000610cff83611171565b8210610d615760405162461bcd60e51b815260206004820152602b60248201527f455243373231456e756d657261626c653a206f776e657220696e646578206f7560448201526a74206f6620626f756e647360a81b6064820152608401610889565b506001600160a01b03919091166000908152600760209081526040808320938352929052205490565b610d92611d40565b601254600160a81b900460ff1615610de35760405162461bcd60e51b815260206004820152601460248201527311195cd8dc9a5c1d1bdc881a5cc81b1bd8dad95960621b6044820152606401610889565b6012805460ff60a81b1916600160a81b1790556040517f593e31e306c198bef259d839f7c6dc4ff7fc10c07f76fab193a210b03704105f90600090a1565b610bf18383836040518060200160405280600081525061168f565b6010546001600160a01b03163314610e915760405162461bcd60e51b815260206004820152601860248201527729b2b73232b91034b9903737ba103a34329036b4b73a32b960411b6044820152606401610889565b610e9a816122c4565b60405181907f806be94a2ac8b92d74e99aa8add5a8e54528a01ec914a9e00d201a6480ed986390600090a250565b6000610ed360095490565b8210610f365760405162461bcd60e51b815260206004820152602c60248201527f455243373231456e756d657261626c653a20676c6f62616c20696e646578206f60448201526b7574206f6620626f756e647360a01b6064820152608401610889565b60098281548110610f4957610f49613311565b90600052602060002001549050919050565b6001600160a01b038082166000908152600b60205260408120549091168015610f845780610f86565b825b9392505050565b6000818152600360205260409020546060906001600160a01b0316610fc45760405162461bcd60e51b815260040161088990613327565b601154600083815260136020526040908190209051630638ac2760e41b81526001600160a01b039092169163638ac2709161100491869190600401613372565b600060405180830381865afa158015611021573d6000803e3d6000fd5b505050506040513d6000823e601f3d908101601f1916820160405261090c91908101906133b7565b6001600160a01b03811661105a5750335b6110643382612359565b50565b61106f611d40565b601254600160b01b900460ff16156110bc5760405162461bcd60e51b815260206004820152601060248201526f14d95959195c881a5cc81b1bd8dad95960821b6044820152606401610889565b6012805460ff60b01b1916600160b01b1790556040517ff59561f22794afcfb1e6be5c4733f5449fd167252a96b74bb06d341fb0dac7ed90600090a1565b6000818152600360205260408120546001600160a01b03168061090c5760405162461bcd60e51b815260206004820152602960248201527f4552433732313a206f776e657220717565727920666f72206e6f6e657869737460448201526832b73a103a37b5b2b760b91b6064820152608401610889565b60006001600160a01b0382166111dc5760405162461bcd60e51b815260206004820152602a60248201527f4552433732313a2062616c616e636520717565727920666f7220746865207a65604482015269726f206164647265737360b01b6064820152608401610889565b506001600160a01b031660009081526004602052604090205490565b611200611d40565b61120a60006123d9565b565b611214611d40565b601254600160a01b900460ff16156112615760405162461bcd60e51b815260206004820152601060248201526f135a5b9d195c881a5cc81b1bd8dad95960821b6044820152606401610889565b6012805460ff60a01b1916600160a01b1790556040517f192417b3f16b1ce69e0c59b0376549666650245ffc05e4b2569089dda8589b6690600090a1565b60004382106113165760405162461bcd60e51b815260206004820152603760248201527f455243373231436865636b706f696e7461626c653a3a6765745072696f72566f60448201527f7465733a206e6f74207965742064657465726d696e65640000000000000000006064820152608401610889565b6001600160a01b0383166000908152600d602052604081205463ffffffff169081900361134757600091505061090c565b6001600160a01b0384166000908152600c60205260408120849161136c60018561342e565b63ffffffff908116825260208201929092526040016000205416116113df576001600160a01b0384166000908152600c60205260408120906113af60018461342e565b63ffffffff168152602081019190915260400160002054600160201b90046001600160601b0316915061090c9050565b6001600160a01b0384166000908152600c6020908152604080832083805290915290205463ffffffff1683101561141a57600091505061090c565b60008061142860018461342e565b90505b8163ffffffff168163ffffffff1611156114fa576000600261144d848461342e565b6114579190613453565b611461908361342e565b6001600160a01b0388166000908152600c6020908152604080832063ffffffff858116855290835292819020815180830190925254928316808252600160201b9093046001600160601b0316918101919091529192508790036114ce5760200151945061090c9350505050565b805163ffffffff168711156114e5578193506114f3565b6114f060018361342e565b92505b505061142b565b506001600160a01b0385166000908152600c6020908152604080832063ffffffff909416835292905220546001600160601b03600160201b9091041691505092915050565b6060600280546109c99061322d565b336001600160a01b038316036115a65760405162461bcd60e51b815260206004820152601960248201527f4552433732313a20617070726f766520746f2063616c6c6572000000000000006044820152606401610889565b3360008181526006602090815260408083206001600160a01b03871680855290835292819020805460ff191686151590811790915590519081529192917f17307eab39ab6107e8899845ad3d59bd9653f200f220920489ca2b5937696c31910160405180910390a35050565b6001600160a01b0381166000908152600d602052604081205463ffffffff168061163d576000610f86565b6001600160a01b0383166000908152600c602052604081209061166160018461342e565b63ffffffff168152602081019190915260400160002054600160201b90046001600160601b03169392505050565b6116993383612054565b6116b55760405162461bcd60e51b8152600401610889906132c0565b6116c184848484612429565b50505050565b6116cf611d40565b80516116e2906015906020840190612dc3565b5050565b60007f8cad95687ba82c2ce50e74f7b754645e5117c3a5bec8151c0726d5857980a8666117116109ba565b8051906020012061171f4690565b60408051602080820195909552808201939093526060830191909152306080808401919091528151808403909101815260a0830182528051908401207fe48329057bfd03d55e49b547132e39cffd9c1820ad7b9d4c5307691425d15adf60c08401526001600160a01b038b1660e084015261010083018a90526101208084018a90528251808503909101815261014084019092528151919093012061190160f01b610160830152610162820183905261018282018190529192506000906101a20160408051601f198184030181528282528051602091820120600080855291840180845281905260ff8a169284019290925260608301889052608083018790529092509060019060a0016020604051602081039080840390855afa15801561184b573d6000803e3d6000fd5b5050604051601f1901519150506001600160a01b0381166118cd5760405162461bcd60e51b815260206004820152603660248201527f455243373231436865636b706f696e7461626c653a3a64656c656761746542796044820152755369673a20696e76616c6964207369676e617475726560501b6064820152608401610889565b6001600160a01b0381166000908152600e602052604081208054916118f1836132a7565b91905055891461195e5760405162461bcd60e51b815260206004820152603260248201527f455243373231436865636b706f696e7461626c653a3a64656c656761746542796044820152715369673a20696e76616c6964206e6f6e636560701b6064820152608401610889565b874211156119cd5760405162461bcd60e51b815260206004820152603660248201527f455243373231436865636b706f696e7461626c653a3a64656c6567617465427960448201527514da59ce881cda59db985d1d5c9948195e1c1a5c995960521b6064820152608401610889565b6119d7818b612359565b505050505b505050505050565b6000818152600360205260409020546060906001600160a01b0316611a1b5760405162461bcd60e51b815260040161088990613327565b601154600083815260136020526040908190209051633cfdafd360e01b81526001600160a01b0390921691633cfdafd39161100491869190600401613372565b611a63611d40565b601254600160b01b900460ff1615611ab05760405162461bcd60e51b815260206004820152601060248201526f14d95959195c881a5cc81b1bd8dad95960821b6044820152606401610889565b601280546001600160a01b0319166001600160a01b0383169081179091556040519081527fb3025222d01ce9a26c7f9d52bc3bfd0352366bd90a793c273fbfe1c81e0e288e906020016108dc565b60606015604051602001611b129190613476565b604051602081830303815290604052905090565b600061090c611b3483611171565b6040518060600160405280603d81526020016137e6603d913961245c565b60405163c455279160e01b81526001600160a01b038381166004830152600091818416917f0000000000000000000000000000000000000000000000000000000000000000169063c455279190602401602060405180830381865afa158015611bbf573d6000803e3d6000fd5b505050506040513d601f19601f82011682018060405250810190611be3919061352a565b6001600160a01b031603611bf95750600161090c565b6001600160a01b0380841660009081526006602090815260408083209386168352929052205460ff16610f86565b611c2f611d40565b6001600160a01b038116611c945760405162461bcd60e51b815260206004820152602660248201527f4f776e61626c653a206e6577206f776e657220697320746865207a65726f206160448201526564647265737360d01b6064820152608401610889565b611064816123d9565b611ca5611d40565b601254600160a01b900460ff1615611cf25760405162461bcd60e51b815260206004820152601060248201526f135a5b9d195c881a5cc81b1bd8dad95960821b6044820152606401610889565b601080546001600160a01b0319166001600160a01b0383169081179091556040519081527fad0f299ec81a386c98df0ac27dae11dd020ed1b56963c53a7292e7a3a314539a906020016108dc565b6000546001600160a01b0316331461120a5760405162461bcd60e51b815260206004820181905260248201527f4f776e61626c653a2063616c6c6572206973206e6f7420746865206f776e65726044820152606401610889565b60006001600160e01b031982166380ac58cd60e01b1480611dcb57506001600160e01b03198216635b5e139f60e01b145b8061090c57506301ffc9a760e01b6001600160e01b031983161461090c565b600081815260056020526040902080546001600160a01b0319166001600160a01b0384169081179091558190611e1f826110fa565b6001600160a01b03167f8c5be1e5ebec7d5bd14f71427d1e84f3dd0314c0f7b2291e5b200ac8c7c3b92560405160405180910390a45050565b60125460115460405163422e2e9960e01b8152600481018490526001600160a01b0391821660248201526000928392169063422e2e999060440160a060405180830381865afa158015611eaf573d6000803e3d6000fd5b505050506040513d601f19601f82011682018060405250810190611ed39190613562565b60008481526013602090815260408083208451815486850151878501516060808a015160809a8b015165ffffffffffff9687166bffffffffffffffffffffffff199096169590951766010000000000009487168502176bffffffffffffffffffffffff60601b1916600160601b938716840265ffffffffffff60901b191617600160901b91871682021765ffffffffffff60c01b198116600160c01b968816870290811798899055895160a081018b52918816908816178152938704861698840198909852908504841695820195909552948304821693850193909352919004169281019290925254909150611fd3906001600160a01b0316858561248b565b827f1106ee9d020bfbb5ee34cf5535a5fbf024a011bd130078088cbf124ab3092478826040516120449190815165ffffffffffff9081168252602080840151821690830152604080840151821690830152606080840151821690830152608092830151169181019190915260a00190565b60405180910390a2509092915050565b6000818152600360205260408120546001600160a01b03166120cd5760405162461bcd60e51b815260206004820152602c60248201527f4552433732313a206f70657261746f7220717565727920666f72206e6f6e657860448201526b34b9ba32b73a103a37b5b2b760a11b6064820152608401610889565b60006120d8836110fa565b9050806001600160a01b0316846001600160a01b031614806121135750836001600160a01b031661210884610a4c565b6001600160a01b0316145b8061212357506121238185611b52565b949350505050565b826001600160a01b031661213e826110fa565b6001600160a01b0316146121a65760405162461bcd60e51b815260206004820152602960248201527f4552433732313a207472616e73666572206f6620746f6b656e2074686174206960448201526839903737ba1037bbb760b91b6064820152608401610889565b6001600160a01b0382166122085760405162461bcd60e51b8152602060048201526024808201527f4552433732313a207472616e7366657220746f20746865207a65726f206164646044820152637265737360e01b6064820152608401610889565b6122138383836125fd565b61221e600082611dea565b6001600160a01b03831660009081526004602052604081208054600192906122479084906135f0565b90915550506001600160a01b0382166000908152600460205260408120805460019290612275908490613607565b909155505060008181526003602052604080822080546001600160a01b0319166001600160a01b0386811691821790925591518493918716916000805160206137c683398151915291a4505050565b60006122cf826110fa565b90506122dd816000846125fd565b6122e8600083611dea565b6001600160a01b03811660009081526004602052604081208054600192906123119084906135f0565b909155505060008281526003602052604080822080546001600160a01b0319169055518391906001600160a01b038416906000805160206137c6833981519152908390a45050565b600061236483610f5b565b6001600160a01b038481166000818152600b602052604080822080546001600160a01b031916888616908117909155905194955093928516927f3134e8a2e6d97e929a7e54011ea5485d7d196dd5f0ba4d4ef95803e8e3fc257f9190a460006123cc84611b26565b90506116c1828483612620565b600080546001600160a01b038381166001600160a01b0319831681178455604051919092169283917f8be0079c531659141344cd1fd0a4f28419497f9722a3daafe3b4186f6b6457e09190a35050565b61243484848461212b565b612440848484846127cc565b6116c15760405162461bcd60e51b81526004016108899061361f565b600081600160601b84106124835760405162461bcd60e51b81526004016108899190612f19565b509192915050565b6001600160a01b0382166124e15760405162461bcd60e51b815260206004820181905260248201527f4552433732313a206d696e7420746f20746865207a65726f20616464726573736044820152606401610889565b6000818152600360205260409020546001600160a01b0316156125465760405162461bcd60e51b815260206004820152601c60248201527f4552433732313a20746f6b656e20616c7265616479206d696e746564000000006044820152606401610889565b612552600083836125fd565b6001600160a01b038216600090815260046020526040812080546001929061257b908490613607565b909155505060008181526003602052604080822080546001600160a01b0319166001600160a01b03868116919091179091559051839291861691906000805160206137c6833981519152908290a480826001600160a01b0316846001600160a01b03166000805160206137c683398151915260405160405180910390a4505050565b6126088383836128cd565b610bf161261484610f5b565b61261d84610f5b565b60015b816001600160a01b0316836001600160a01b03161415801561264b57506000816001600160601b0316115b15610bf1576001600160a01b03831615612710576001600160a01b0383166000908152600d602052604081205463ffffffff16908161268b5760006126d7565b6001600160a01b0385166000908152600c60205260408120906126af60018561342e565b63ffffffff168152602081019190915260400160002054600160201b90046001600160601b03165b905060006126fe828560405180606001604052806037815260200161382360379139612985565b905061270c868484846129c7565b5050505b6001600160a01b03821615610bf1576001600160a01b0382166000908152600d602052604081205463ffffffff16908161274b576000612797565b6001600160a01b0384166000908152600c602052604081209061276f60018561342e565b63ffffffff168152602081019190915260400160002054600160201b90046001600160601b03165b905060006127be828560405180606001604052806036815260200161374c60369139612bbf565b90506119dc858484846129c7565b60006001600160a01b0384163b156128c257604051630a85bd0160e11b81526001600160a01b0385169063150b7a0290612810903390899088908890600401613671565b6020604051808303816000875af192505050801561284b575060408051601f3d908101601f19168201909252612848918101906136ae565b60015b6128a8573d808015612879576040519150601f19603f3d011682016040523d82523d6000602084013e61287e565b606091505b5080516000036128a05760405162461bcd60e51b81526004016108899061361f565b805181602001fd5b6001600160e01b031916630a85bd0160e11b149050612123565b506001949350505050565b6001600160a01b0383166129285761292381600980546000838152600a60205260408120829055600182018355919091527f6e1540171b6c0c960b71a7020d9f60077f6af931a8bbf590da0223dacf75c7af0155565b61294b565b816001600160a01b0316836001600160a01b03161461294b5761294b8382612c0c565b6001600160a01b03821661296257610bf181612ca9565b826001600160a01b0316826001600160a01b031614610bf157610bf18282612d58565b6000836001600160601b0316836001600160601b0316111582906129bc5760405162461bcd60e51b81526004016108899190612f19565b5061212383856136cb565b60006129eb4360405180608001604052806044815260200161378260449139612d9c565b905060008463ffffffff16118015612a4557506001600160a01b0385166000908152600c6020526040812063ffffffff831691612a2960018861342e565b63ffffffff908116825260208201929092526040016000205416145b15612ab9576001600160a01b0385166000908152600c602052604081208391612a6f60018861342e565b63ffffffff168152602081019190915260400160002080546001600160601b0392909216600160201b026fffffffffffffffffffffffff0000000019909216919091179055612b6a565b60408051808201825263ffffffff80841682526001600160601b0380861660208085019182526001600160a01b038b166000908152600c82528681208b8616825290915294909420925183549451909116600160201b026fffffffffffffffffffffffffffffffff19909416911617919091179055612b398460016136eb565b6001600160a01b0386166000908152600d60205260409020805463ffffffff191663ffffffff929092169190911790555b604080516001600160601b038086168252841660208201526001600160a01b038716917fdec2bacdd2f05b59de34da9b523dff8be42e5e38e818c82fdb0bae774387a724910160405180910390a25050505050565b600080612bcc8486613713565b9050846001600160601b0316816001600160601b031610158390612c035760405162461bcd60e51b81526004016108899190612f19565b50949350505050565b60006001612c1984611171565b612c2391906135f0565b600083815260086020526040902054909150808214612c76576001600160a01b03841660009081526007602090815260408083208584528252808320548484528184208190558352600890915290208190555b5060009182526008602090815260408084208490556001600160a01b039094168352600781528383209183525290812055565b600954600090612cbb906001906135f0565b6000838152600a602052604081205460098054939450909284908110612ce357612ce3613311565b906000526020600020015490508060098381548110612d0457612d04613311565b6000918252602080832090910192909255828152600a90915260408082208490558582528120556009805480612d3c57612d3c613735565b6001900381819060005260206000200160009055905550505050565b6000612d6383611171565b6001600160a01b039093166000908152600760209081526040808320868452825280832085905593825260089052919091209190915550565b600081600160201b84106124835760405162461bcd60e51b81526004016108899190612f19565b828054612dcf9061322d565b90600052602060002090601f016020900481019282612df15760008555612e37565b82601f10612e0a57805160ff1916838001178555612e37565b82800160010185558215612e37579182015b82811115612e37578251825591602001919060010190612e1c565b50612e43929150612e47565b5090565b5b80821115612e435760008155600101612e48565b6001600160a01b038116811461106457600080fd5b600060208284031215612e8357600080fd5b8135610f8681612e5c565b6001600160e01b03198116811461106457600080fd5b600060208284031215612eb657600080fd5b8135610f8681612e8e565b60005b83811015612edc578181015183820152602001612ec4565b838111156116c15750506000910152565b60008151808452612f05816020860160208601612ec1565b601f01601f19169290920160200192915050565b602081526000610f866020830184612eed565b600060208284031215612f3e57600080fd5b5035919050565b60008060408385031215612f5857600080fd5b8235612f6381612e5c565b946020939093013593505050565b600080600060608486031215612f8657600080fd5b8335612f9181612e5c565b92506020840135612fa181612e5c565b929592945050506040919091013590565b60008060408385031215612fc557600080fd5b8235612fd081612e5c565b915060208301358015158114612fe557600080fd5b809150509250929050565b634e487b7160e01b600052604160045260246000fd5b604051601f8201601f1916810167ffffffffffffffff8111828210171561302f5761302f612ff0565b604052919050565b600067ffffffffffffffff82111561305157613051612ff0565b50601f01601f191660200190565b600061307261306d84613037565b613006565b905082815283838301111561308657600080fd5b828260208301376000602084830101529392505050565b600080600080608085870312156130b357600080fd5b84356130be81612e5c565b935060208501356130ce81612e5c565b925060408501359150606085013567ffffffffffffffff8111156130f157600080fd5b8501601f8101871361310257600080fd5b6131118782356020840161305f565b91505092959194509250565b60006020828403121561312f57600080fd5b813567ffffffffffffffff81111561314657600080fd5b8201601f8101841361315757600080fd5b6121238482356020840161305f565b60008060008060008060c0878903121561317f57600080fd5b863561318a81612e5c565b95506020870135945060408701359350606087013560ff811681146131ae57600080fd5b9598949750929560808101359460a0909101359350915050565b600080604083850312156131db57600080fd5b82356131e681612e5c565b91506020830135612fe581612e5c565b6000806040838503121561320957600080fd5b823561321481612e5c565b9150602083013563ffffffff81168114612fe557600080fd5b600181811c9082168061324157607f821691505b60208210810361326157634e487b7160e01b600052602260045260246000fd5b50919050565b634e487b7160e01b600052601260045260246000fd5b60008261328c5761328c613267565b500690565b634e487b7160e01b600052601160045260246000fd5b6000600182016132b9576132b9613291565b5060010190565b60208082526031908201527f4552433732313a207472616e736665722063616c6c6572206973206e6f74206f6040820152701ddb995c881b9bdc88185c1c1c9bdd9959607a1b606082015260800190565b634e487b7160e01b600052603260045260246000fd5b6020808252602b908201527f4e6f756e73546f6b656e3a2055524920717565727920666f72206e6f6e65786960408201526a39ba32b73a103a37b5b2b760a91b606082015260800190565b9182525465ffffffffffff8082166020840152603082901c81166040840152606082811c821690840152609082901c8116608084015260c091821c1660a08301520190565b6000602082840312156133c957600080fd5b815167ffffffffffffffff8111156133e057600080fd5b8201601f810184136133f157600080fd5b80516133ff61306d82613037565b81815285602083850101111561341457600080fd5b613425826020830160208601612ec1565b95945050505050565b600063ffffffff8381169083168181101561344b5761344b613291565b039392505050565b600063ffffffff8084168061346a5761346a613267565b92169190910492915050565b66697066733a2f2f60c81b8152600060076000845481600182811c9150808316806134a257607f831692505b602080841082036134c157634e487b7160e01b86526022600452602486fd5b8180156134d557600181146134ea5761351b565b60ff1986168a890152848a018801965061351b565b60008b81526020902060005b868110156135115781548c82018b01529085019083016134f6565b505087858b010196505b50949998505050505050505050565b60006020828403121561353c57600080fd5b8151610f8681612e5c565b805165ffffffffffff8116811461355d57600080fd5b919050565b600060a0828403121561357457600080fd5b60405160a0810181811067ffffffffffffffff8211171561359757613597612ff0565b6040526135a383613547565b81526135b160208401613547565b60208201526135c260408401613547565b60408201526135d360608401613547565b60608201526135e460808401613547565b60808201529392505050565b60008282101561360257613602613291565b500390565b6000821982111561361a5761361a613291565b500190565b60208082526032908201527f4552433732313a207472616e7366657220746f206e6f6e20455243373231526560408201527131b2b4bb32b91034b6b83632b6b2b73a32b960711b606082015260800190565b6001600160a01b03858116825284166020820152604081018390526080606082018190526000906136a490830184612eed565b9695505050505050565b6000602082840312156136c057600080fd5b8151610f8681612e8e565b60006001600160601b038381169083168181101561344b5761344b613291565b600063ffffffff80831681851680830382111561370a5761370a613291565b01949350505050565b60006001600160601b0380831681851680830382111561370a5761370a613291565b634e487b7160e01b600052603160045260246000fdfe455243373231436865636b706f696e7461626c653a3a5f6d6f766544656c6567617465733a20616d6f756e74206f766572666c6f7773455243373231436865636b706f696e7461626c653a3a5f7772697465436865636b706f696e743a20626c6f636b206e756d62657220657863656564732033322062697473ddf252ad1be2c89b69c2b068fc378daa952ba7f163c4a11628f55a4df523b3ef455243373231436865636b706f696e7461626c653a3a766f746573546f44656c65676174653a20616d6f756e7420657863656564732039362062697473455243373231436865636b706f696e7461626c653a3a5f6d6f766544656c6567617465733a20616d6f756e7420756e646572666c6f7773a2646970667358221220fe0c0160ee38382238fb46aaf0faafc8747a0422d381301ca9cb74317045047464736f6c634300080d0033516d5a69316e3739467157743274544c7743716979366e4c4d36784c475273455051354a6d52654a514b4e4e7a58",
  "devdoc": {
    "kind": "dev",
    "methods": {
      "approve(address,uint256)": {
        "details": "See {IERC721-approve}."
      },
      "balanceOf(address)": {
        "details": "See {IERC721-balanceOf}."
      },
      "delegate(address)": {
        "params": {
          "delegatee": "The address to delegate votes to"
        }
      },
      "delegateBySig(address,uint256,uint256,uint8,bytes32,bytes32)": {
        "params": {
          "delegatee": "The address to delegate votes to",
          "expiry": "The time at which to expire the signature",
          "nonce": "The contract state required to match the signature",
          "r": "Half of the ECDSA signature pair",
          "s": "Half of the ECDSA signature pair",
          "v": "The recovery byte of the signature"
        }
      },
      "getApproved(uint256)": {
        "details": "See {IERC721-getApproved}."
      },
      "getCurrentVotes(address)": {
        "params": {
          "account": "The address to get votes balance"
        },
        "returns": {
          "_0": "The number of current votes for `account`"
        }
      },
      "getPriorVotes(address,uint256)": {
        "details": "Block number must be a finalized block or else this function will revert to prevent misinformation.",
        "params": {
          "account": "The address of the account to check",
          "blockNumber": "The block number to get the vote balance at"
        },
        "returns": {
          "_0": "The number of votes the account had as of the given block"
        }
      },
      "lockDescriptor()": {
        "details": "This cannot be reversed and is only callable by the owner when not locked."
      },
      "lockMinter()": {
        "details": "This cannot be reversed and is only callable by the owner when not locked."
      },
      "lockSeeder()": {
        "details": "This cannot be reversed and is only callable by the owner when not locked."
      },
      "mint()": {
        "details": "Call _mintTo with the to address(es)."
      },
      "name()": {
        "details": "See {IERC721Metadata-name}."
      },
      "owner()": {
        "details": "Returns the address of the current owner."
      },
      "ownerOf(uint256)": {
        "details": "See {IERC721-ownerOf}."
      },
      "renounceOwnership()": {
        "details": "Leaves the contract without owner. It will not be possible to call `onlyOwner` functions anymore. Can only be called by the current owner. NOTE: Renouncing ownership will leave the contract without an owner, thereby removing any functionality that is only available to the owner."
      },
      "safeTransferFrom(address,address,uint256)": {
        "details": "See {IERC721-safeTransferFrom}."
      },
      "safeTransferFrom(address,address,uint256,bytes)": {
        "details": "See {IERC721-safeTransferFrom}."
      },
      "setApprovalForAll(address,bool)": {
        "details": "See {IERC721-setApprovalForAll}."
      },
      "setContractURIHash(string)": {
        "details": "Only callable by the owner."
      },
      "setDescriptor(address)": {
        "details": "Only callable by the owner when not locked."
      },
      "setMinter(address)": {
        "details": "Only callable by the owner when not locked."
      },
      "setNoundersDAO(address)": {
        "details": "Only callable by the nounders DAO when not locked."
      },
      "setSeeder(address)": {
        "details": "Only callable by the owner when not locked."
      },
      "supportsInterface(bytes4)": {
        "details": "See {IERC165-supportsInterface}."
      },
      "symbol()": {
        "details": "See {IERC721Metadata-symbol}."
      },
      "tokenByIndex(uint256)": {
        "details": "See {IERC721Enumerable-tokenByIndex}."
      },
      "tokenOfOwnerByIndex(address,uint256)": {
        "details": "See {IERC721Enumerable-tokenOfOwnerByIndex}."
      },
      "tokenURI(uint256)": {
        "details": "See {IERC721Metadata-tokenURI}."
      },
      "totalSupply()": {
        "details": "See {IERC721Enumerable-totalSupply}."
      },
      "transferFrom(address,address,uint256)": {
        "details": "See {IERC721-transferFrom}."
      },
      "transferOwnership(address)": {
        "details": "Transfers ownership of the contract to a new account (`newOwner`). Can only be called by the current owner."
      },
      "votesToDelegate(address)": {
        "details": "Used when calling `_delegate()`"
      }
    },
    "version": 1
  },
  "userdoc": {
    "events": {
      "DelegateChanged(address,address,address)": {
        "notice": "An event thats emitted when an account changes its delegate"
      },
      "DelegateVotesChanged(address,uint256,uint256)": {
        "notice": "An event thats emitted when a delegate account's vote balance changes"
      }
    },
    "kind": "user",
    "methods": {
      "DELEGATION_TYPEHASH()": {
        "notice": "The EIP-712 typehash for the delegation struct used by the contract"
      },
      "DOMAIN_TYPEHASH()": {
        "notice": "The EIP-712 typehash for the contract's domain"
      },
      "burn(uint256)": {
        "notice": "Burn a noun."
      },
      "checkpoints(address,uint32)": {
        "notice": "A record of votes checkpoints for each account, by index"
      },
      "contractURI()": {
        "notice": "The IPFS URI of contract-level metadata."
      },
      "dataURI(uint256)": {
        "notice": "Similar to `tokenURI`, but always serves a base64 encoded data URI with the JSON contents directly inlined."
      },
      "decimals()": {
        "notice": "Defines decimals as per ERC-20 convention to make integrations with 3rd party governance platforms easier"
      },
      "delegate(address)": {
        "notice": "Delegate votes from `msg.sender` to `delegatee`"
      },
      "delegateBySig(address,uint256,uint256,uint8,bytes32,bytes32)": {
        "notice": "Delegates votes from signatory to `delegatee`"
      },
      "delegates(address)": {
        "notice": "Overrides the standard `Comp.sol` delegates mapping to return the delegator's own address if they haven't delegated. This avoids having to delegate to oneself."
      },
      "getCurrentVotes(address)": {
        "notice": "Gets the current votes balance for `account`"
      },
      "getPriorVotes(address,uint256)": {
        "notice": "Determine the prior number of votes for an account as of a block number"
      },
      "isApprovedForAll(address,address)": {
        "notice": "Override isApprovedForAll to whitelist user's OpenSea proxy accounts to enable gas-less listings."
      },
      "lockDescriptor()": {
        "notice": "Lock the descriptor."
      },
      "lockMinter()": {
        "notice": "Lock the minter."
      },
      "lockSeeder()": {
        "notice": "Lock the seeder."
      },
      "mint()": {
        "notice": "Mint a Noun to the minter, along with a possible nounders reward Noun. Nounders reward Nouns are minted every 10 Nouns, starting at 0, until 183 nounder Nouns have been minted (5 years w/ 24 hour auctions)."
      },
      "nonces(address)": {
        "notice": "A record of states for signing / validating signatures"
      },
      "numCheckpoints(address)": {
        "notice": "The number of checkpoints for each account"
      },
      "setContractURIHash(string)": {
        "notice": "Set the _contractURIHash."
      },
      "setDescriptor(address)": {
        "notice": "Set the token URI descriptor."
      },
      "setMinter(address)": {
        "notice": "Set the token minter."
      },
      "setNoundersDAO(address)": {
        "notice": "Set the nounders DAO."
      },
      "setSeeder(address)": {
        "notice": "Set the token seeder."
      },
      "tokenURI(uint256)": {
        "notice": "A distinct Uniform Resource Identifier (URI) for a given asset."
      },
      "votesToDelegate(address)": {
        "notice": "The votes a delegator can delegate, which is the current balance of the delegator."
      }
    },
    "version": 1
  },
  "storageLayout": {
    "storage": [
      {
        "astId": 761,
        "contract": "contracts/NounsToken.sol:NounsToken",
        "label": "_owner",
        "offset": 0,
        "slot": "0",
        "type": "t_address"
      },
      {
        "astId": 3702,
        "contract": "contracts/NounsToken.sol:NounsToken",
        "label": "_name",
        "offset": 0,
        "slot": "1",
        "type": "t_string_storage"
      },
      {
        "astId": 3704,
        "contract": "contracts/NounsToken.sol:NounsToken",
        "label": "_symbol",
        "offset": 0,
        "slot": "2",
        "type": "t_string_storage"
      },
      {
        "astId": 3708,
        "contract": "contracts/NounsToken.sol:NounsToken",
        "label": "_owners",
        "offset": 0,
        "slot": "3",
        "type": "t_mapping(t_uint256,t_address)"
      },
      {
        "astId": 3712,
        "contract": "contracts/NounsToken.sol:NounsToken",
        "label": "_balances",
        "offset": 0,
        "slot": "4",
        "type": "t_mapping(t_address,t_uint256)"
      },
      {
        "astId": 3716,
        "contract": "contracts/NounsToken.sol:NounsToken",
        "label": "_tokenApprovals",
        "offset": 0,
        "slot": "5",
        "type": "t_mapping(t_uint256,t_address)"
      },
      {
        "astId": 3722,
        "contract": "contracts/NounsToken.sol:NounsToken",
        "label": "_operatorApprovals",
        "offset": 0,
        "slot": "6",
        "type": "t_mapping(t_address,t_mapping(t_address,t_bool))"
      },
      {
        "astId": 5284,
        "contract": "contracts/NounsToken.sol:NounsToken",
        "label": "_ownedTokens",
        "offset": 0,
        "slot": "7",
        "type": "t_mapping(t_address,t_mapping(t_uint256,t_uint256))"
      },
      {
        "astId": 5288,
        "contract": "contracts/NounsToken.sol:NounsToken",
        "label": "_ownedTokensIndex",
        "offset": 0,
        "slot": "8",
        "type": "t_mapping(t_uint256,t_uint256)"
      },
      {
        "astId": 5291,
        "contract": "contracts/NounsToken.sol:NounsToken",
        "label": "_allTokens",
        "offset": 0,
        "slot": "9",
        "type": "t_array(t_uint256)dyn_storage"
      },
      {
        "astId": 5295,
        "contract": "contracts/NounsToken.sol:NounsToken",
        "label": "_allTokensIndex",
        "offset": 0,
        "slot": "10",
        "type": "t_mapping(t_uint256,t_uint256)"
      },
      {
        "astId": 4522,
        "contract": "contracts/NounsToken.sol:NounsToken",
        "label": "_delegates",
        "offset": 0,
        "slot": "11",
        "type": "t_mapping(t_address,t_address)"
      },
      {
        "astId": 4535,
        "contract": "contracts/NounsToken.sol:NounsToken",
        "label": "checkpoints",
        "offset": 0,
        "slot": "12",
        "type": "t_mapping(t_address,t_mapping(t_uint32,t_struct(Checkpoint)4527_storage))"
      },
      {
        "astId": 4540,
        "contract": "contracts/NounsToken.sol:NounsToken",
        "label": "numCheckpoints",
        "offset": 0,
        "slot": "13",
        "type": "t_mapping(t_address,t_uint32)"
      },
      {
        "astId": 4557,
        "contract": "contracts/NounsToken.sol:NounsToken",
        "label": "nonces",
        "offset": 0,
        "slot": "14",
        "type": "t_mapping(t_address,t_uint256)"
      },
      {
        "astId": 3217,
        "contract": "contracts/NounsToken.sol:NounsToken",
        "label": "noundersDAO",
        "offset": 0,
        "slot": "15",
        "type": "t_address"
      },
      {
        "astId": 3219,
        "contract": "contracts/NounsToken.sol:NounsToken",
        "label": "minter",
        "offset": 0,
        "slot": "16",
        "type": "t_address"
      },
      {
        "astId": 3222,
        "contract": "contracts/NounsToken.sol:NounsToken",
        "label": "descriptor",
        "offset": 0,
        "slot": "17",
        "type": "t_contract(INounsDescriptor)5979"
      },
      {
        "astId": 3225,
        "contract": "contracts/NounsToken.sol:NounsToken",
        "label": "seeder",
        "offset": 0,
        "slot": "18",
        "type": "t_contract(INounsSeeder)6006"
      },
      {
        "astId": 3227,
        "contract": "contracts/NounsToken.sol:NounsToken",
        "label": "isMinterLocked",
        "offset": 20,
        "slot": "18",
        "type": "t_bool"
      },
      {
        "astId": 3229,
        "contract": "contracts/NounsToken.sol:NounsToken",
        "label": "isDescriptorLocked",
        "offset": 21,
        "slot": "18",
        "type": "t_bool"
      },
      {
        "astId": 3231,
        "contract": "contracts/NounsToken.sol:NounsToken",
        "label": "isSeederLocked",
        "offset": 22,
        "slot": "18",
        "type": "t_bool"
      },
      {
        "astId": 3236,
        "contract": "contracts/NounsToken.sol:NounsToken",
        "label": "seeds",
        "offset": 0,
        "slot": "19",
        "type": "t_mapping(t_uint256,t_struct(Seed)5994_storage)"
      },
      {
        "astId": 3238,
        "contract": "contracts/NounsToken.sol:NounsToken",
        "label": "_currentNounId",
        "offset": 0,
        "slot": "20",
        "type": "t_uint256"
      },
      {
        "astId": 3241,
        "contract": "contracts/NounsToken.sol:NounsToken",
        "label": "_contractURIHash",
        "offset": 0,
        "slot": "21",
        "type": "t_string_storage"
      }
    ],
    "types": {
      "t_address": {
        "encoding": "inplace",
        "label": "address",
        "numberOfBytes": "20"
      },
      "t_array(t_uint256)dyn_storage": {
        "base": "t_uint256",
        "encoding": "dynamic_array",
        "label": "uint256[]",
        "numberOfBytes": "32"
      },
      "t_bool": {
        "encoding": "inplace",
        "label": "bool",
        "numberOfBytes": "1"
      },
      "t_contract(INounsDescriptor)5979": {
        "encoding": "inplace",
        "label": "contract INounsDescriptor",
        "numberOfBytes": "20"
      },
      "t_contract(INounsSeeder)6006": {
        "encoding": "inplace",
        "label": "contract INounsSeeder",
        "numberOfBytes": "20"
      },
      "t_mapping(t_address,t_address)": {
        "encoding": "mapping",
        "key": "t_address",
        "label": "mapping(address => address)",
        "numberOfBytes": "32",
        "value": "t_address"
      },
      "t_mapping(t_address,t_bool)": {
        "encoding": "mapping",
        "key": "t_address",
        "label": "mapping(address => bool)",
        "numberOfBytes": "32",
        "value": "t_bool"
      },
      "t_mapping(t_address,t_mapping(t_address,t_bool))": {
        "encoding": "mapping",
        "key": "t_address",
        "label": "mapping(address => mapping(address => bool))",
        "numberOfBytes": "32",
        "value": "t_mapping(t_address,t_bool)"
      },
      "t_mapping(t_address,t_mapping(t_uint256,t_uint256))": {
        "encoding": "mapping",
        "key": "t_address",
        "label": "mapping(address => mapping(uint256 => uint256))",
        "numberOfBytes": "32",
        "value": "t_mapping(t_uint256,t_uint256)"
      },
      "t_mapping(t_address,t_mapping(t_uint32,t_struct(Checkpoint)4527_storage))": {
        "encoding": "mapping",
        "key": "t_address",
        "label": "mapping(address => mapping(uint32 => struct ERC721Checkpointable.Checkpoint))",
        "numberOfBytes": "32",
        "value": "t_mapping(t_uint32,t_struct(Checkpoint)4527_storage)"
      },
      "t_mapping(t_address,t_uint256)": {
        "encoding": "mapping",
        "key": "t_address",
        "label": "mapping(address => uint256)",
        "numberOfBytes": "32",
        "value": "t_uint256"
      },
      "t_mapping(t_address,t_uint32)": {
        "encoding": "mapping",
        "key": "t_address",
        "label": "mapping(address => uint32)",
        "numberOfBytes": "32",
        "value": "t_uint32"
      },
      "t_mapping(t_uint256,t_address)": {
        "encoding": "mapping",
        "key": "t_uint256",
        "label": "mapping(uint256 => address)",
        "numberOfBytes": "32",
        "value": "t_address"
      },
      "t_mapping(t_uint256,t_struct(Seed)5994_storage)": {
        "encoding": "mapping",
        "key": "t_uint256",
        "label": "mapping(uint256 => struct INounsSeeder.Seed)",
        "numberOfBytes": "32",
        "value": "t_struct(Seed)5994_storage"
      },
      "t_mapping(t_uint256,t_uint256)": {
        "encoding": "mapping",
        "key": "t_uint256",
        "label": "mapping(uint256 => uint256)",
        "numberOfBytes": "32",
        "value": "t_uint256"
      },
      "t_mapping(t_uint32,t_struct(Checkpoint)4527_storage)": {
        "encoding": "mapping",
        "key": "t_uint32",
        "label": "mapping(uint32 => struct ERC721Checkpointable.Checkpoint)",
        "numberOfBytes": "32",
        "value": "t_struct(Checkpoint)4527_storage"
      },
      "t_string_storage": {
        "encoding": "bytes",
        "label": "string",
        "numberOfBytes": "32"
      },
      "t_struct(Checkpoint)4527_storage": {
        "encoding": "inplace",
        "label": "struct ERC721Checkpointable.Checkpoint",
        "members": [
          {
            "astId": 4524,
            "contract": "contracts/NounsToken.sol:NounsToken",
            "label": "fromBlock",
            "offset": 0,
            "slot": "0",
            "type": "t_uint32"
          },
          {
            "astId": 4526,
            "contract": "contracts/NounsToken.sol:NounsToken",
            "label": "votes",
            "offset": 4,
            "slot": "0",
            "type": "t_uint96"
          }
        ],
        "numberOfBytes": "32"
      },
      "t_struct(Seed)5994_storage": {
        "encoding": "inplace",
        "label": "struct INounsSeeder.Seed",
        "members": [
          {
            "astId": 5985,
            "contract": "contracts/NounsToken.sol:NounsToken",
            "label": "background",
            "offset": 0,
            "slot": "0",
            "type": "t_uint48"
          },
          {
            "astId": 5987,
            "contract": "contracts/NounsToken.sol:NounsToken",
            "label": "body",
            "offset": 6,
            "slot": "0",
            "type": "t_uint48"
          },
          {
            "astId": 5989,
            "contract": "contracts/NounsToken.sol:NounsToken",
            "label": "accessory",
            "offset": 12,
            "slot": "0",
            "type": "t_uint48"
          },
          {
            "astId": 5991,
            "contract": "contracts/NounsToken.sol:NounsToken",
            "label": "head",
            "offset": 18,
            "slot": "0",
            "type": "t_uint48"
          },
          {
            "astId": 5993,
            "contract": "contracts/NounsToken.sol:NounsToken",
            "label": "glasses",
            "offset": 24,
            "slot": "0",
            "type": "t_uint48"
          }
        ],
        "numberOfBytes": "32"
      },
      "t_uint256": {
        "encoding": "inplace",
        "label": "uint256",
        "numberOfBytes": "32"
      },
      "t_uint32": {
        "encoding": "inplace",
        "label": "uint32",
        "numberOfBytes": "4"
      },
      "t_uint48": {
        "encoding": "inplace",
        "label": "uint48",
        "numberOfBytes": "6"
      },
      "t_uint96": {
        "encoding": "inplace",
        "label": "uint96",
        "numberOfBytes": "12"
      }
    }
  }
}