{
  "address": "0x8bED3f5c8aD8014EaCba068ac0C61140B82bdae8",
  "abi": [
    {
      "inputs": [
        {
          "internalType": "uint256",
          "name": "nounId",
          "type": "uint256"
        },
        {
          "internalType": "contract INounsDescriptor",
          "name": "descriptor",
          "type": "address"
        }
      ],
      "name": "generateSeed",
      "outputs": [
        {
          "components": [
            {
              "internalType": "uint48",
              "name": "background",
              "type": "uint48"
            },
            {
              "internalType": "uint48",
              "name": "body",
              "type": "uint48"
            },
            {
              "internalType": "uint48",
              "name": "accessory",
              "type": "uint48"
            },
            {
              "internalType": "uint48",
              "name": "head",
              "type": "uint48"
            },
            {
              "internalType": "uint48",
              "name": "glasses",
              "type": "uint48"
            }
          ],
          "internalType": "struct INounsSeeder.Seed",
          "name": "",
          "type": "tuple"
        }
      ],
      "stateMutability": "view",
      "type": "function"
    }
  ],
  "transactionHash": "0x40370a3f7f0637b84a81fa471cd429923fbdab712dd65c2e53ca0e0509901a6c",
  "args": [],
  "numDeployments": 1,
  "solcInputHash": "62597b20e8418284b724623213aedb19",
  "bytecode": "0x608060405234801561001057600080fd5b50610794806100206000396000f3fe608060405234801561001057600080fd5b506004361061002b5760003560e01c8063422e2e9914610030575b600080fd5b61004a600480360381019061004591906104fd565b610060565b60405161005791906105c6565b60405180910390f35b6100686103fb565b60006001436100779190610610565b408460405160200161008a929190610690565b6040516020818303038152906040528051906020012060001c905060008373ffffffffffffffffffffffffffffffffffffffff16634531c0a86040518163ffffffff1660e01b815260040160206040518083038186803b1580156100ed57600080fd5b505afa158015610101573d6000803e3d6000fd5b505050506040513d601f19601f8201168201806040525081019061012591906106d1565b905060008473ffffffffffffffffffffffffffffffffffffffff1663eba818066040518163ffffffff1660e01b815260040160206040518083038186803b15801561016f57600080fd5b505afa158015610183573d6000803e3d6000fd5b505050506040513d601f19601f820116820180604052508101906101a791906106d1565b905060008573ffffffffffffffffffffffffffffffffffffffff16634daebac26040518163ffffffff1660e01b815260040160206040518083038186803b1580156101f157600080fd5b505afa158015610205573d6000803e3d6000fd5b505050506040513d601f19601f8201168201806040525081019061022991906106d1565b905060008673ffffffffffffffffffffffffffffffffffffffff1663cc2aa0916040518163ffffffff1660e01b815260040160206040518083038186803b15801561027357600080fd5b505afa158015610287573d6000803e3d6000fd5b505050506040513d601f19601f820116820180604052508101906102ab91906106d1565b905060008773ffffffffffffffffffffffffffffffffffffffff16634479cef26040518163ffffffff1660e01b815260040160206040518083038186803b1580156102f557600080fd5b505afa158015610309573d6000803e3d6000fd5b505050506040513d601f19601f8201168201806040525081019061032d91906106d1565b90506040518060a00160405280868865ffffffffffff1661034e919061072d565b65ffffffffffff16815260200185603089901c65ffffffffffff16610373919061072d565b65ffffffffffff16815260200184606089901c65ffffffffffff16610398919061072d565b65ffffffffffff16815260200183609089901c65ffffffffffff166103bd919061072d565b65ffffffffffff1681526020018260c089901c65ffffffffffff166103e2919061072d565b65ffffffffffff16815250965050505050505092915050565b6040518060a00160405280600065ffffffffffff168152602001600065ffffffffffff168152602001600065ffffffffffff168152602001600065ffffffffffff168152602001600065ffffffffffff1681525090565b600080fd5b6000819050919050565b61046a81610457565b811461047557600080fd5b50565b60008135905061048781610461565b92915050565b600073ffffffffffffffffffffffffffffffffffffffff82169050919050565b60006104b88261048d565b9050919050565b60006104ca826104ad565b9050919050565b6104da816104bf565b81146104e557600080fd5b50565b6000813590506104f7816104d1565b92915050565b6000806040838503121561051457610513610452565b5b600061052285828601610478565b9250506020610533858286016104e8565b9150509250929050565b600065ffffffffffff82169050919050565b6105588161053d565b82525050565b60a082016000820151610574600085018261054f565b506020820151610587602085018261054f565b50604082015161059a604085018261054f565b5060608201516105ad606085018261054f565b5060808201516105c0608085018261054f565b50505050565b600060a0820190506105db600083018461055e565b92915050565b7f4e487b7100000000000000000000000000000000000000000000000000000000600052601160045260246000fd5b600061061b82610457565b915061062683610457565b925082821015610639576106386105e1565b5b828203905092915050565b6000819050919050565b6000819050919050565b61066961066482610644565b61064e565b82525050565b6000819050919050565b61068a61068582610457565b61066f565b82525050565b600061069c8285610658565b6020820191506106ac8284610679565b6020820191508190509392505050565b6000815190506106cb81610461565b92915050565b6000602082840312156106e7576106e6610452565b5b60006106f5848285016106bc565b91505092915050565b7f4e487b7100000000000000000000000000000000000000000000000000000000600052601260045260246000fd5b600061073882610457565b915061074383610457565b925082610753576107526106fe565b5b82820690509291505056fea2646970667358221220ea78365b705def8e8ad3d15074e920d47d5c0cc2e00fb280b33c7003c2a9dd4364736f6c63430008090033",
  "devdoc": {
    "kind": "dev",
    "methods": {},
    "version": 1
  },
  "userdoc": {
    "kind": "user",
    "methods": {
      "generateSeed(uint256,address)": {
        "notice": "Generate a pseudo-random Noun seed using the previous blockhash and noun ID."
      }
    },
    "version": 1
  },
  "storageLayout": {
    "storage": [],
    "types": null
  }
}