{
  "address": "0xf560D84eF2eDF8e8c17Db26e9b2427795DA70cA5",
  "abi": [
    {
      "anonymous": false,
      "inputs": [
        {
          "indexed": false,
          "internalType": "string",
          "name": "baseURI",
          "type": "string"
        }
      ],
      "name": "BaseURIUpdated",
      "type": "event"
    },
    {
      "anonymous": false,
      "inputs": [
        {
          "indexed": false,
          "internalType": "bool",
          "name": "enabled",
          "type": "bool"
        }
      ],
      "name": "DataURIToggled",
      "type": "event"
    },
    {
      "anonymous": false,
      "inputs": [
        {
          "indexed": true,
          "internalType": "address",
          "name": "previousOwner",
          "type": "address"
        },
        {
          "indexed": true,
          "internalType": "address",
          "name": "newOwner",
          "type": "address"
        }
      ],
      "name": "OwnershipTransferred",
      "type": "event"
    },
    {
      "anonymous": false,
      "inputs": [],
      "name": "PartsLocked",
      "type": "event"
    },
    {
      "inputs": [
        {
          "internalType": "uint256",
          "name": "",
          "type": "uint256"
        }
      ],
      "name": "accessories",
      "outputs": [
        {
          "internalType": "bytes",
          "name": "",
          "type": "bytes"
        }
      ],
      "stateMutability": "view",
      "type": "function"
    },
    {
      "inputs": [],
      "name": "accessoryCount",
      "outputs": [
        {
          "internalType": "uint256",
          "name": "",
          "type": "uint256"
        }
      ],
      "stateMutability": "view",
      "type": "function"
    },
    {
      "inputs": [
        {
          "internalType": "bytes",
          "name": "_accessory",
          "type": "bytes"
        }
      ],
      "name": "addAccessory",
      "outputs": [],
      "stateMutability": "nonpayable",
      "type": "function"
    },
    {
      "inputs": [
        {
          "internalType": "string",
          "name": "_background",
          "type": "string"
        }
      ],
      "name": "addBackground",
      "outputs": [],
      "stateMutability": "nonpayable",
      "type": "function"
    },
    {
      "inputs": [
        {
          "internalType": "bytes",
          "name": "_body",
          "type": "bytes"
        }
      ],
      "name": "addBody",
      "outputs": [],
      "stateMutability": "nonpayable",
      "type": "function"
    },
    {
      "inputs": [
        {
          "internalType": "uint8",
          "name": "_paletteIndex",
          "type": "uint8"
        },
        {
          "internalType": "string",
          "name": "_color",
          "type": "string"
        }
      ],
      "name": "addColorToPalette",
      "outputs": [],
      "stateMutability": "nonpayable",
      "type": "function"
    },
    {
      "inputs": [
        {
          "internalType": "bytes",
          "name": "_glasses",
          "type": "bytes"
        }
      ],
      "name": "addGlasses",
      "outputs": [],
      "stateMutability": "nonpayable",
      "type": "function"
    },
    {
      "inputs": [
        {
          "internalType": "bytes",
          "name": "_head",
          "type": "bytes"
        }
      ],
      "name": "addHead",
      "outputs": [],
      "stateMutability": "nonpayable",
      "type": "function"
    },
    {
      "inputs": [
        {
          "internalType": "bytes[]",
          "name": "_accessories",
          "type": "bytes[]"
        }
      ],
      "name": "addManyAccessories",
      "outputs": [],
      "stateMutability": "nonpayable",
      "type": "function"
    },
    {
      "inputs": [
        {
          "internalType": "string[]",
          "name": "_backgrounds",
          "type": "string[]"
        }
      ],
      "name": "addManyBackgrounds",
      "outputs": [],
      "stateMutability": "nonpayable",
      "type": "function"
    },
    {
      "inputs": [
        {
          "internalType": "bytes[]",
          "name": "_bodies",
          "type": "bytes[]"
        }
      ],
      "name": "addManyBodies",
      "outputs": [],
      "stateMutability": "nonpayable",
      "type": "function"
    },
    {
      "inputs": [
        {
          "internalType": "uint8",
          "name": "paletteIndex",
          "type": "uint8"
        },
        {
          "internalType": "string[]",
          "name": "newColors",
          "type": "string[]"
        }
      ],
      "name": "addManyColorsToPalette",
      "outputs": [],
      "stateMutability": "nonpayable",
      "type": "function"
    },
    {
      "inputs": [
        {
          "internalType": "bytes[]",
          "name": "_glasses",
          "type": "bytes[]"
        }
      ],
      "name": "addManyGlasses",
      "outputs": [],
      "stateMutability": "nonpayable",
      "type": "function"
    },
    {
      "inputs": [
        {
          "internalType": "bytes[]",
          "name": "_heads",
          "type": "bytes[]"
        }
      ],
      "name": "addManyHeads",
      "outputs": [],
      "stateMutability": "nonpayable",
      "type": "function"
    },
    {
      "inputs": [],
      "name": "arePartsLocked",
      "outputs": [
        {
          "internalType": "bool",
          "name": "",
          "type": "bool"
        }
      ],
      "stateMutability": "view",
      "type": "function"
    },
    {
      "inputs": [],
      "name": "backgroundCount",
      "outputs": [
        {
          "internalType": "uint256",
          "name": "",
          "type": "uint256"
        }
      ],
      "stateMutability": "view",
      "type": "function"
    },
    {
      "inputs": [
        {
          "internalType": "uint256",
          "name": "",
          "type": "uint256"
        }
      ],
      "name": "backgrounds",
      "outputs": [
        {
          "internalType": "string",
          "name": "",
          "type": "string"
        }
      ],
      "stateMutability": "view",
      "type": "function"
    },
    {
      "inputs": [],
      "name": "baseURI",
      "outputs": [
        {
          "internalType": "string",
          "name": "",
          "type": "string"
        }
      ],
      "stateMutability": "view",
      "type": "function"
    },
    {
      "inputs": [
        {
          "internalType": "uint256",
          "name": "",
          "type": "uint256"
        }
      ],
      "name": "bodies",
      "outputs": [
        {
          "internalType": "bytes",
          "name": "",
          "type": "bytes"
        }
      ],
      "stateMutability": "view",
      "type": "function"
    },
    {
      "inputs": [],
      "name": "bodyCount",
      "outputs": [
        {
          "internalType": "uint256",
          "name": "",
          "type": "uint256"
        }
      ],
      "stateMutability": "view",
      "type": "function"
    },
    {
      "inputs": [
        {
          "internalType": "uint256",
          "name": "tokenId",
          "type": "uint256"
        },
        {
          "components": [
            {
              "internalType": "uint48",
              "name": "background",
              "type": "uint48"
            },
            {
              "internalType": "uint48",
              "name": "body",
              "type": "uint48"
            },
            {
              "internalType": "uint48",
              "name": "accessory",
              "type": "uint48"
            },
            {
              "internalType": "uint48",
              "name": "head",
              "type": "uint48"
            },
            {
              "internalType": "uint48",
              "name": "glasses",
              "type": "uint48"
            }
          ],
          "internalType": "struct INounsSeeder.Seed",
          "name": "seed",
          "type": "tuple"
        }
      ],
      "name": "dataURI",
      "outputs": [
        {
          "internalType": "string",
          "name": "",
          "type": "string"
        }
      ],
      "stateMutability": "view",
      "type": "function"
    },
    {
      "inputs": [
        {
          "components": [
            {
              "internalType": "uint48",
              "name": "background",
              "type": "uint48"
            },
            {
              "internalType": "uint48",
              "name": "body",
              "type": "uint48"
            },
            {
              "internalType": "uint48",
              "name": "accessory",
              "type": "uint48"
            },
            {
              "internalType": "uint48",
              "name": "head",
              "type": "uint48"
            },
            {
              "internalType": "uint48",
              "name": "glasses",
              "type": "uint48"
            }
          ],
          "internalType": "struct INounsSeeder.Seed",
          "name": "seed",
          "type": "tuple"
        }
      ],
      "name": "generateSVGImage",
      "outputs": [
        {
          "internalType": "string",
          "name": "",
          "type": "string"
        }
      ],
      "stateMutability": "view",
      "type": "function"
    },
    {
      "inputs": [
        {
          "internalType": "string",
          "name": "name",
          "type": "string"
        },
        {
          "internalType": "string",
          "name": "description",
          "type": "string"
        },
        {
          "components": [
            {
              "internalType": "uint48",
              "name": "background",
              "type": "uint48"
            },
            {
              "internalType": "uint48",
              "name": "body",
              "type": "uint48"
            },
            {
              "internalType": "uint48",
              "name": "accessory",
              "type": "uint48"
            },
            {
              "internalType": "uint48",
              "name": "head",
              "type": "uint48"
            },
            {
              "internalType": "uint48",
              "name": "glasses",
              "type": "uint48"
            }
          ],
          "internalType": "struct INounsSeeder.Seed",
          "name": "seed",
          "type": "tuple"
        }
      ],
      "name": "genericDataURI",
      "outputs": [
        {
          "internalType": "string",
          "name": "",
          "type": "string"
        }
      ],
      "stateMutability": "view",
      "type": "function"
    },
    {
      "inputs": [
        {
          "internalType": "uint256",
          "name": "",
          "type": "uint256"
        }
      ],
      "name": "glasses",
      "outputs": [
        {
          "internalType": "bytes",
          "name": "",
          "type": "bytes"
        }
      ],
      "stateMutability": "view",
      "type": "function"
    },
    {
      "inputs": [],
      "name": "glassesCount",
      "outputs": [
        {
          "internalType": "uint256",
          "name": "",
          "type": "uint256"
        }
      ],
      "stateMutability": "view",
      "type": "function"
    },
    {
      "inputs": [],
      "name": "headCount",
      "outputs": [
        {
          "internalType": "uint256",
          "name": "",
          "type": "uint256"
        }
      ],
      "stateMutability": "view",
      "type": "function"
    },
    {
      "inputs": [
        {
          "internalType": "uint256",
          "name": "",
          "type": "uint256"
        }
      ],
      "name": "heads",
      "outputs": [
        {
          "internalType": "bytes",
          "name": "",
          "type": "bytes"
        }
      ],
      "stateMutability": "view",
      "type": "function"
    },
    {
      "inputs": [],
      "name": "isDataURIEnabled",
      "outputs": [
        {
          "internalType": "bool",
          "name": "",
          "type": "bool"
        }
      ],
      "stateMutability": "view",
      "type": "function"
    },
    {
      "inputs": [],
      "name": "lockParts",
      "outputs": [],
      "stateMutability": "nonpayable",
      "type": "function"
    },
    {
      "inputs": [],
      "name": "owner",
      "outputs": [
        {
          "internalType": "address",
          "name": "",
          "type": "address"
        }
      ],
      "stateMutability": "view",
      "type": "function"
    },
    {
      "inputs": [
        {
          "internalType": "uint8",
          "name": "",
          "type": "uint8"
        },
        {
          "internalType": "uint256",
          "name": "",
          "type": "uint256"
        }
      ],
      "name": "palettes",
      "outputs": [
        {
          "internalType": "string",
          "name": "",
          "type": "string"
        }
      ],
      "stateMutability": "view",
      "type": "function"
    },
    {
      "inputs": [],
      "name": "renounceOwnership",
      "outputs": [],
      "stateMutability": "nonpayable",
      "type": "function"
    },
    {
      "inputs": [
        {
          "internalType": "string",
          "name": "_baseURI",
          "type": "string"
        }
      ],
      "name": "setBaseURI",
      "outputs": [],
      "stateMutability": "nonpayable",
      "type": "function"
    },
    {
      "inputs": [],
      "name": "toggleDataURIEnabled",
      "outputs": [],
      "stateMutability": "nonpayable",
      "type": "function"
    },
    {
      "inputs": [
        {
          "internalType": "uint256",
          "name": "tokenId",
          "type": "uint256"
        },
        {
          "components": [
            {
              "internalType": "uint48",
              "name": "background",
              "type": "uint48"
            },
            {
              "internalType": "uint48",
              "name": "body",
              "type": "uint48"
            },
            {
              "internalType": "uint48",
              "name": "accessory",
              "type": "uint48"
            },
            {
              "internalType": "uint48",
              "name": "head",
              "type": "uint48"
            },
            {
              "internalType": "uint48",
              "name": "glasses",
              "type": "uint48"
            }
          ],
          "internalType": "struct INounsSeeder.Seed",
          "name": "seed",
          "type": "tuple"
        }
      ],
      "name": "tokenURI",
      "outputs": [
        {
          "internalType": "string",
          "name": "",
          "type": "string"
        }
      ],
      "stateMutability": "view",
      "type": "function"
    },
    {
      "inputs": [
        {
          "internalType": "address",
          "name": "newOwner",
          "type": "address"
        }
      ],
      "name": "transferOwnership",
      "outputs": [],
      "stateMutability": "nonpayable",
      "type": "function"
    }
  ],
  "transactionHash": "0xc4ee394a824492ceb0c4abe651c1cf11b04deacbb6d31b8e3ba9b15d03847f46",
  "args": [],
  "numDeployments": 1,
  "solcInputHash": "3c3c99dd1d6f9057b182fe3b80fa68e8",
  "bytecode": "0x60806040526001600060156101000a81548160ff0219169083151502179055503480156200002c57600080fd5b506200004d620000416200005360201b60201c565b6200005b60201b60201c565b6200011f565b600033905090565b60008060009054906101000a900473ffffffffffffffffffffffffffffffffffffffff169050816000806101000a81548173ffffffffffffffffffffffffffffffffffffffff021916908373ffffffffffffffffffffffffffffffffffffffff1602179055508173ffffffffffffffffffffffffffffffffffffffff168173ffffffffffffffffffffffffffffffffffffffff167f8be0079c531659141344cd1fd0a4f28419497f9722a3daafe3b4186f6b6457e060405160405180910390a35050565b6149ca806200012f6000396000f3fe608060405234801561001057600080fd5b506004361061021c5760003560e01c8063715018a6116101255780639a796205116100ad578063ce2f4f531161007c578063ce2f4f5314610637578063dfe8478b14610655578063eba818061461065f578063f2fde38b1461067d578063f9da8863146106995761021c565b80639a796205146105b1578063a51e4124146105cd578063b982d1b9146105e9578063cc2aa091146106195761021c565b8063839644da116100f4578063839644da1461050f57806387db11bd1461052b5780638a85a1e81461055b5780638da5cb5b1461057757806391b7916a146105955761021c565b8063715018a61461049b578063773b9771146104a55780637a34aad3146104c35780637ca94210146104df5761021c565b80634531c0a8116101a85780635a503f13116101775780635a503f13146103e55780635e70664c14610415578063615bda1014610431578063638ac2701461044d5780636c0360eb1461047d5761021c565b80634531c0a81461035d5780634daebac21461037b57806355f804b314610399578063598fa9da146103b55761021c565b80632a1d0769116101ef5780632a1d0769146102a55780632ea04300146102af5780633cfdafd3146102df5780634479cef21461030f57806344cee73c1461032d5761021c565b80630475d8631461022157806304bde4dd1461023d57806317b552ab1461026d5780632715c90e14610289575b600080fd5b61023b6004803603810190610236919061322c565b6106b5565b005b610257600480360381019061025291906132af565b610760565b6040516102649190613375565b60405180910390f35b610287600480360381019061028291906133ed565b61080c565b005b6102a3600480360381019061029e91906133ed565b610872565b005b6102ad6108d8565b005b6102c960048036038101906102c49190613584565b610979565b6040516102d69190613375565b60405180910390f35b6102f960048036038101906102f491906135b1565b610a61565b6040516103069190613375565b60405180910390f35b610317610abd565b6040516103249190613600565b60405180910390f35b610347600480360381019061034291906132af565b610aca565b6040516103549190613670565b60405180910390f35b610365610b76565b6040516103729190613600565b60405180910390f35b610383610b83565b6040516103909190613600565b60405180910390f35b6103b360048036038101906103ae91906136e8565b610b90565b005b6103cf60048036038101906103ca919061376e565b610be7565b6040516103dc9190613375565b60405180910390f35b6103ff60048036038101906103fa91906132af565b610ca0565b60405161040c9190613670565b60405180910390f35b61042f600480360381019061042a91906136e8565b610d4c565b005b61044b600480360381019061044691906133ed565b610db2565b005b610467600480360381019061046291906135b1565b610e18565b6040516104749190613375565b60405180910390f35b610485610e85565b6040516104929190613375565b60405180910390f35b6104a3610f13565b005b6104ad610f27565b6040516104ba91906137c9565b60405180910390f35b6104dd60048036038101906104d8919061322c565b610f3a565b005b6104f960048036038101906104f491906132af565b610fe5565b6040516105069190613670565b60405180910390f35b6105296004803603810190610524919061383a565b611091565b005b6105456004803603810190610540919061394f565b61115d565b6040516105529190613375565b60405180910390f35b6105756004803603810190610570919061322c565b611253565b005b61057f6112fe565b60405161058c9190613a1b565b60405180910390f35b6105af60048036038101906105aa9190613a36565b611327565b005b6105cb60048036038101906105c691906133ed565b6113d2565b005b6105e760048036038101906105e2919061322c565b611438565b005b61060360048036038101906105fe91906132af565b6114e3565b6040516106109190613670565b60405180910390f35b61062161158f565b60405161062e9190613600565b60405180910390f35b61063f61159c565b60405161064c91906137c9565b60405180910390f35b61065d6115af565b005b61066761161f565b6040516106749190613600565b60405180910390f35b61069760048036038101906106929190613aaf565b61162c565b005b6106b360048036038101906106ae9190613adc565b6116b0565b005b6106bd611728565b600060149054906101000a900460ff161561070d576040517f08c379a000000000000000000000000000000000000000000000000000000000815260040161070490613b88565b60405180910390fd5b60005b8282905081101561075b5761074883838381811061073157610730613ba8565b5b90506020028101906107439190613be6565b6117a6565b808061075390613c78565b915050610710565b505050565b6003818154811061077057600080fd5b90600052602060002001600091509050805461078b90613cf0565b80601f01602080910402602001604051908101604052809291908181526020018280546107b790613cf0565b80156108045780601f106107d957610100808354040283529160200191610804565b820191906000526020600020905b8154815290600101906020018083116107e757829003601f168201915b505050505081565b610814611728565b600060149054906101000a900460ff1615610864576040517f08c379a000000000000000000000000000000000000000000000000000000000815260040161085b90613b88565b60405180910390fd5b61086e82826117a6565b5050565b61087a611728565b600060149054906101000a900460ff16156108ca576040517f08c379a00000000000000000000000000000000000000000000000000000000081526004016108c190613b88565b60405180910390fd5b6108d482826117e8565b5050565b6108e0611728565b600060149054906101000a900460ff1615610930576040517f08c379a000000000000000000000000000000000000000000000000000000000815260040161092790613b88565b60405180910390fd5b6001600060146101000a81548160ff0219169083151502179055507f1680ee6d421f70ed6030d2fc4fcb50217a5dd617858d56562b119eca59172e5760405160405180910390a1565b6060600060405180604001604052806109918561182a565b81526020016003856000015165ffffffffffff16815481106109b6576109b5613ba8565b5b9060005260206000200180546109cb90613cf0565b80601f01602080910402602001604051908101604052809291908181526020018280546109f790613cf0565b8015610a445780601f10610a1957610100808354040283529160200191610a44565b820191906000526020600020905b815481529060010190602001808311610a2757829003601f168201915b50505050508152509050610a59816002611bd0565b915050919050565b6060600060159054906101000a900460ff1615610a8957610a828383610e18565b9050610ab7565b6001610a9484611bec565b604051602001610aa5929190613df2565b60405160208183030381529060405290505b92915050565b6000600780549050905090565b60048181548110610ada57600080fd5b906000526020600020016000915090508054610af590613cf0565b80601f0160208091040260200160405190810160405280929190818152602001828054610b2190613cf0565b8015610b6e5780601f10610b4357610100808354040283529160200191610b6e565b820191906000526020600020905b815481529060010190602001808311610b5157829003601f168201915b505050505081565b6000600380549050905090565b6000600580549050905090565b610b98611728565b818160019190610ba9929190612fdd565b507f6741b2fc379fad678116fe3d4d4b9a1a184ab53ba36b86ad0fa66340b1ab41ad8282604051610bdb929190613e43565b60405180910390a15050565b60026020528160005260406000208181548110610c0357600080fd5b90600052602060002001600091509150508054610c1f90613cf0565b80601f0160208091040260200160405190810160405280929190818152602001828054610c4b90613cf0565b8015610c985780601f10610c6d57610100808354040283529160200191610c98565b820191906000526020600020905b815481529060010190602001808311610c7b57829003601f168201915b505050505081565b60068181548110610cb057600080fd5b906000526020600020016000915090508054610ccb90613cf0565b80601f0160208091040260200160405190810160405280929190818152602001828054610cf790613cf0565b8015610d445780601f10610d1957610100808354040283529160200191610d44565b820191906000526020600020905b815481529060010190602001808311610d2757829003601f168201915b505050505081565b610d54611728565b600060149054906101000a900460ff1615610da4576040517f08c379a0000000000000000000000000000000000000000000000000000000008152600401610d9b90613b88565b60405180910390fd5b610dae8282611d4d565b5050565b610dba611728565b600060149054906101000a900460ff1615610e0a576040517f08c379a0000000000000000000000000000000000000000000000000000000008152600401610e0190613b88565b60405180910390fd5b610e148282611d8f565b5050565b60606000610e2584611bec565b9050600081604051602001610e3a9190613eb3565b6040516020818303038152906040529050600082604051602001610e5e9190613f21565b6040516020818303038152906040529050610e7a82828761115d565b935050505092915050565b60018054610e9290613cf0565b80601f0160208091040260200160405190810160405280929190818152602001828054610ebe90613cf0565b8015610f0b5780601f10610ee057610100808354040283529160200191610f0b565b820191906000526020600020905b815481529060010190602001808311610eee57829003601f168201915b505050505081565b610f1b611728565b610f256000611dd1565b565b600060149054906101000a900460ff1681565b610f42611728565b600060149054906101000a900460ff1615610f92576040517f08c379a0000000000000000000000000000000000000000000000000000000008152600401610f8990613b88565b60405180910390fd5b60005b82829050811015610fe057610fcd838383818110610fb657610fb5613ba8565b5b9050602002810190610fc89190613be6565b611e95565b8080610fd890613c78565b915050610f95565b505050565b60058181548110610ff557600080fd5b90600052602060002001600091509050805461101090613cf0565b80601f016020809104026020016040519081016040528092919081815260200182805461103c90613cf0565b80156110895780601f1061105e57610100808354040283529160200191611089565b820191906000526020600020905b81548152906001019060200180831161106c57829003601f168201915b505050505081565b611099611728565b61010082829050600260008660ff1660ff168152602001908152602001600020805490506110c79190613f4e565b1115611108576040517f08c379a00000000000000000000000000000000000000000000000000000000081526004016110ff90614016565b60405180910390fd5b60005b82829050811015611157576111448484848481811061112d5761112c613ba8565b5b905060200281019061113f9190614036565b611ed7565b808061114f90613c78565b91505061110b565b50505050565b6060600060405180608001604052808681526020018581526020016111818561182a565b81526020016003856000015165ffffffffffff16815481106111a6576111a5613ba8565b5b9060005260206000200180546111bb90613cf0565b80601f01602080910402602001604051908101604052809291908181526020018280546111e790613cf0565b80156112345780601f1061120957610100808354040283529160200191611234565b820191906000526020600020905b81548152906001019060200180831161121757829003601f168201915b50505050508152509050611249816002611f31565b9150509392505050565b61125b611728565b600060149054906101000a900460ff16156112ab576040517f08c379a00000000000000000000000000000000000000000000000000000000081526004016112a290613b88565b60405180910390fd5b60005b828290508110156112f9576112e68383838181106112cf576112ce613ba8565b5b90506020028101906112e19190613be6565b6117e8565b80806112f190613c78565b9150506112ae565b505050565b60008060009054906101000a900473ffffffffffffffffffffffffffffffffffffffff16905090565b61132f611728565b600060149054906101000a900460ff161561137f576040517f08c379a000000000000000000000000000000000000000000000000000000000815260040161137690613b88565b60405180910390fd5b60005b828290508110156113cd576113ba8383838181106113a3576113a2613ba8565b5b90506020028101906113b59190614036565b611d4d565b80806113c590613c78565b915050611382565b505050565b6113da611728565b600060149054906101000a900460ff161561142a576040517f08c379a000000000000000000000000000000000000000000000000000000000815260040161142190613b88565b60405180910390fd5b6114348282611e95565b5050565b611440611728565b600060149054906101000a900460ff1615611490576040517f08c379a000000000000000000000000000000000000000000000000000000000815260040161148790613b88565b60405180910390fd5b60005b828290508110156114de576114cb8383838181106114b4576114b3613ba8565b5b90506020028101906114c69190613be6565b611d8f565b80806114d690613c78565b915050611493565b505050565b600781815481106114f357600080fd5b90600052602060002001600091509050805461150e90613cf0565b80601f016020809104026020016040519081016040528092919081815260200182805461153a90613cf0565b80156115875780601f1061155c57610100808354040283529160200191611587565b820191906000526020600020905b81548152906001019060200180831161156a57829003601f168201915b505050505081565b6000600680549050905090565b600060159054906101000a900460ff1681565b6115b7611728565b60008060159054906101000a900460ff1615905080600060156101000a81548160ff0219169083151502179055507f360c3d72ee193226275b842f85231c259c934e85459fed80fa68e502ffa9dbde8160405161161491906137c9565b60405180910390a150565b6000600480549050905090565b611634611728565b600073ffffffffffffffffffffffffffffffffffffffff168173ffffffffffffffffffffffffffffffffffffffff1614156116a4576040517f08c379a000000000000000000000000000000000000000000000000000000000815260040161169b9061410b565b60405180910390fd5b6116ad81611dd1565b50565b6116b8611728565b60ff600260008560ff1660ff168152602001908152602001600020805490501115611718576040517f08c379a000000000000000000000000000000000000000000000000000000000815260040161170f90614016565b60405180910390fd5b611723838383611ed7565b505050565b611730611fb9565b73ffffffffffffffffffffffffffffffffffffffff1661174e6112fe565b73ffffffffffffffffffffffffffffffffffffffff16146117a4576040517f08c379a000000000000000000000000000000000000000000000000000000000815260040161179b90614177565b60405180910390fd5b565b60058282909180600181540180825580915050600190039060005260206000200160009091929091929091929091925091906117e3929190613063565b505050565b6004828290918060018154018082558091505060019003906000526020600020016000909192909192909192909192509190611825929190613063565b505050565b60606000600467ffffffffffffffff8111156118495761184861343f565b5b60405190808252806020026020018201604052801561187c57816020015b60608152602001906001900390816118675790505b5090506004836020015165ffffffffffff168154811061189f5761189e613ba8565b5b9060005260206000200180546118b490613cf0565b80601f01602080910402602001604051908101604052809291908181526020018280546118e090613cf0565b801561192d5780601f106119025761010080835404028352916020019161192d565b820191906000526020600020905b81548152906001019060200180831161191057829003601f168201915b50505050508160008151811061194657611945613ba8565b5b60200260200101819052506005836040015165ffffffffffff168154811061197157611970613ba8565b5b90600052602060002001805461198690613cf0565b80601f01602080910402602001604051908101604052809291908181526020018280546119b290613cf0565b80156119ff5780601f106119d4576101008083540402835291602001916119ff565b820191906000526020600020905b8154815290600101906020018083116119e257829003601f168201915b505050505081600181518110611a1857611a17613ba8565b5b60200260200101819052506006836060015165ffffffffffff1681548110611a4357611a42613ba8565b5b906000526020600020018054611a5890613cf0565b80601f0160208091040260200160405190810160405280929190818152602001828054611a8490613cf0565b8015611ad15780601f10611aa657610100808354040283529160200191611ad1565b820191906000526020600020905b815481529060010190602001808311611ab457829003601f168201915b505050505081600281518110611aea57611ae9613ba8565b5b60200260200101819052506007836080015165ffffffffffff1681548110611b1557611b14613ba8565b5b906000526020600020018054611b2a90613cf0565b80601f0160208091040260200160405190810160405280929190818152602001828054611b5690613cf0565b8015611ba35780601f10611b7857610100808354040283529160200191611ba3565b820191906000526020600020905b815481529060010190602001808311611b8657829003601f168201915b505050505081600381518110611bbc57611bbb613ba8565b5b602002602001018190525080915050919050565b6060611be4611bdf8484611fc1565b611ffa565b905092915050565b60606000821415611c34576040518060400160405280600181526020017f30000000000000000000000000000000000000000000000000000000000000008152509050611d48565b600082905060005b60008214611c66578080611c4f90613c78565b915050600a82611c5f91906141c6565b9150611c3c565b60008167ffffffffffffffff811115611c8257611c8161343f565b5b6040519080825280601f01601f191660200182016040528015611cb45781602001600182028036833780820191505090505b5090505b60008514611d4157600182611ccd91906141f7565b9150600a85611cdc919061422b565b6030611ce89190613f4e565b60f81b818381518110611cfe57611cfd613ba8565b5b60200101907effffffffffffffffffffffffffffffffffffffffffffffffffffffffffffff1916908160001a905350600a85611d3a91906141c6565b9450611cb8565b8093505050505b919050565b6003828290918060018154018082558091505060019003906000526020600020016000909192909192909192909192509190611d8a929190612fdd565b505050565b6007828290918060018154018082558091505060019003906000526020600020016000909192909192909192909192509190611dcc929190613063565b505050565b60008060009054906101000a900473ffffffffffffffffffffffffffffffffffffffff169050816000806101000a81548173ffffffffffffffffffffffffffffffffffffffff021916908373ffffffffffffffffffffffffffffffffffffffff1602179055508173ffffffffffffffffffffffffffffffffffffffff168173ffffffffffffffffffffffffffffffffffffffff167f8be0079c531659141344cd1fd0a4f28419497f9722a3daafe3b4186f6b6457e060405160405180910390a35050565b6006828290918060018154018082558091505060019003906000526020600020016000909192909192909192909192509190611ed2929190613063565b505050565b600260008460ff1660ff168152602001908152602001600020828290918060018154018082558091505060019003906000526020600020016000909192909192909192909192509190611f2b929190612fdd565b50505050565b60606000611f5b604051806040016040528086604001518152602001866060015181525084611bd0565b9050611f918460000151856020015183604051602001611f7d939291906143d8565b604051602081830303815290604052611ffa565b604051602001611fa1919061448c565b60405160208183030381529060405291505092915050565b600033905090565b60608260200151611fd28484612173565b604051602001611fe3929190614676565b604051602081830303815290604052905092915050565b606060008251141561201d5760405180602001604052806000815250905061216e565b6000604051806060016040528060408152602001614955604091399050600060036002855161204c9190613f4e565b61205691906141c6565b600461206291906146c6565b905060006020826120739190613f4e565b67ffffffffffffffff81111561208c5761208b61343f565b5b6040519080825280601f01601f1916602001820160405280156120be5781602001600182028036833780820191505090505b509050818152600183018586518101602084015b8183101561212d576003830192508251603f8160121c168501518253600182019150603f81600c1c168501518253600182019150603f8160061c168501518253600182019150603f81168501518253600182019150506120d2565b600389510660018114612147576002811461215757612162565b613d3d60f01b6002830352612162565b603d60f81b60018303525b50505050508093505050505b919050565b606060006040518061042001604052806040518060400160405280600181526020017f300000000000000000000000000000000000000000000000000000000000000081525081526020016040518060400160405280600281526020017f313000000000000000000000000000000000000000000000000000000000000081525081526020016040518060400160405280600281526020017f323000000000000000000000000000000000000000000000000000000000000081525081526020016040518060400160405280600281526020017f333000000000000000000000000000000000000000000000000000000000000081525081526020016040518060400160405280600281526020017f343000000000000000000000000000000000000000000000000000000000000081525081526020016040518060400160405280600281526020017f353000000000000000000000000000000000000000000000000000000000000081525081526020016040518060400160405280600281526020017f363000000000000000000000000000000000000000000000000000000000000081525081526020016040518060400160405280600281526020017f373000000000000000000000000000000000000000000000000000000000000081525081526020016040518060400160405280600281526020017f383000000000000000000000000000000000000000000000000000000000000081525081526020016040518060400160405280600281526020017f393000000000000000000000000000000000000000000000000000000000000081525081526020016040518060400160405280600381526020017f313030000000000000000000000000000000000000000000000000000000000081525081526020016040518060400160405280600381526020017f313130000000000000000000000000000000000000000000000000000000000081525081526020016040518060400160405280600381526020017f313230000000000000000000000000000000000000000000000000000000000081525081526020016040518060400160405280600381526020017f313330000000000000000000000000000000000000000000000000000000000081525081526020016040518060400160405280600381526020017f313430000000000000000000000000000000000000000000000000000000000081525081526020016040518060400160405280600381526020017f313530000000000000000000000000000000000000000000000000000000000081525081526020016040518060400160405280600381526020017f313630000000000000000000000000000000000000000000000000000000000081525081526020016040518060400160405280600381526020017f313730000000000000000000000000000000000000000000000000000000000081525081526020016040518060400160405280600381526020017f313830000000000000000000000000000000000000000000000000000000000081525081526020016040518060400160405280600381526020017f313930000000000000000000000000000000000000000000000000000000000081525081526020016040518060400160405280600381526020017f323030000000000000000000000000000000000000000000000000000000000081525081526020016040518060400160405280600381526020017f323130000000000000000000000000000000000000000000000000000000000081525081526020016040518060400160405280600381526020017f323230000000000000000000000000000000000000000000000000000000000081525081526020016040518060400160405280600381526020017f323330000000000000000000000000000000000000000000000000000000000081525081526020016040518060400160405280600381526020017f323430000000000000000000000000000000000000000000000000000000000081525081526020016040518060400160405280600381526020017f323530000000000000000000000000000000000000000000000000000000000081525081526020016040518060400160405280600381526020017f323630000000000000000000000000000000000000000000000000000000000081525081526020016040518060400160405280600381526020017f323730000000000000000000000000000000000000000000000000000000000081525081526020016040518060400160405280600381526020017f323830000000000000000000000000000000000000000000000000000000000081525081526020016040518060400160405280600381526020017f323930000000000000000000000000000000000000000000000000000000000081525081526020016040518060400160405280600381526020017f333030000000000000000000000000000000000000000000000000000000000081525081526020016040518060400160405280600381526020017f333130000000000000000000000000000000000000000000000000000000000081525081526020016040518060400160405280600381526020017f33323000000000000000000000000000000000000000000000000000000000008152508152509050606060005b8560000151518160ff161015612ca257600061295f87600001518360ff168151811061295257612951613ba8565b5b6020026020010151612cae565b90506000866000836000015160ff1660ff1681526020019081526020016000209050600082602001516060015160ff169050600083602001516000015160ff16905060006129ab6130e9565b606060005b876060015151811015612c2d576000886060015182815181106129d6576129d5613ba8565b5b602002602001015190506000816020015160ff1614612bc5578b816000015160ff1660218110612a0957612a08613ba8565b5b6020020151848660108110612a2157612a20613ba8565b5b60200201819052508b8760218110612a3c57612a3b613ba8565b5b602002015184600187612a4f9190613f4e565b60108110612a6057612a5f613ba8565b5b60200201819052508b8660218110612a7b57612a7a613ba8565b5b602002015184600287612a8e9190613f4e565b60108110612a9f57612a9e613ba8565b5b602002018190525087816020015160ff1681548110612ac157612ac0613ba8565b5b906000526020600020018054612ad690613cf0565b80601f0160208091040260200160405190810160405280929190818152602001828054612b0290613cf0565b8015612b4f5780601f10612b2457610100808354040283529160200191612b4f565b820191906000526020600020905b815481529060010190602001808311612b3257829003601f168201915b505050505084600387612b629190613f4e565b60108110612b7357612b72613ba8565b5b6020020181905250600485612b889190613f4e565b945060108510612bc45782612b9d8686612f06565b604051602001612bae929190614720565b6040516020818303038152906040529250600094505b5b806000015160ff1687612bd89190613f4e565b9650886040015189602001516060015160ff1688612bf691906141f7565b1415612c195788602001516060015160ff1696508580612c1590613c78565b9650505b508080612c2590613c78565b9150506129b0565b5060008314612c645780612c418484612f06565b604051602001612c52929190614720565b60405160208183030381529060405290505b8881604051602001612c77929190614720565b6040516020818303038152906040529850505050505050508080612c9a90614744565b915050612923565b50809250505092915050565b612cb6613111565b600082600081518110612ccc57612ccb613ba8565b5b602001015160f81c60f81b60f81c90506000604051806080016040528085600181518110612cfd57612cfc613ba8565b5b602001015160f81c60f81b60f81c60ff16815260200185600281518110612d2757612d26613ba8565b5b602001015160f81c60f81b60f81c60ff16815260200185600381518110612d5157612d50613ba8565b5b602001015160f81c60f81b60f81c60ff16815260200185600481518110612d7b57612d7a613ba8565b5b602001015160f81c60f81b60f81c60ff168152509050600081606001518260200151612da7919061476e565b60ff169050600080600260058851612dbf91906141f7565b612dc991906141c6565b67ffffffffffffffff811115612de257612de161343f565b5b604051908082528060200260200182016040528015612e1b57816020015b612e08613142565b815260200190600190039081612e005790505b5090506000600590505b8751811015612ed5576040518060400160405280898381518110612e4c57612e4b613ba8565b5b602001015160f81c60f81b60f81c60ff16815260200189600184612e709190613f4e565b81518110612e8157612e80613ba8565b5b602001015160f81c60f81b60f81c60ff16815250828481518110612ea857612ea7613ba8565b5b60200260200101819052508280612ebe90613c78565b935050600281612ece9190613f4e565b9050612e25565b5060405180608001604052808660ff1681526020018581526020018481526020018281525095505050505050919050565b60608060005b84811015612fd25781848260108110612f2857612f27613ba8565b5b602002015185600184612f3b9190613f4e565b60108110612f4c57612f4b613ba8565b5b602002015186600285612f5f9190613f4e565b60108110612f7057612f6f613ba8565b5b602002015187600386612f839190613f4e565b60108110612f9457612f93613ba8565b5b6020020151604051602001612fad9594939291906148d2565b6040516020818303038152906040529150600481612fcb9190613f4e565b9050612f0c565b508091505092915050565b828054612fe990613cf0565b90600052602060002090601f01602090048101928261300b5760008555613052565b82601f1061302457803560ff1916838001178555613052565b82800160010185558215613052579182015b82811115613051578235825591602001919060010190613036565b5b50905061305f9190613162565b5090565b82805461306f90613cf0565b90600052602060002090601f01602090048101928261309157600085556130d8565b82601f106130aa57803560ff19168380011785556130d8565b828001600101855582156130d8579182015b828111156130d75782358255916020019190600101906130bc565b5b5090506130e59190613162565b5090565b6040518061020001604052806010905b60608152602001906001900390816130f95790505090565b6040518060800160405280600060ff16815260200161312e61317f565b815260200160008152602001606081525090565b6040518060400160405280600060ff168152602001600060ff1681525090565b5b8082111561317b576000816000905550600101613163565b5090565b6040518060800160405280600060ff168152602001600060ff168152602001600060ff168152602001600060ff1681525090565b6000604051905090565b600080fd5b600080fd5b600080fd5b600080fd5b600080fd5b60008083601f8401126131ec576131eb6131c7565b5b8235905067ffffffffffffffff811115613209576132086131cc565b5b602083019150836020820283011115613225576132246131d1565b5b9250929050565b60008060208385031215613243576132426131bd565b5b600083013567ffffffffffffffff811115613261576132606131c2565b5b61326d858286016131d6565b92509250509250929050565b6000819050919050565b61328c81613279565b811461329757600080fd5b50565b6000813590506132a981613283565b92915050565b6000602082840312156132c5576132c46131bd565b5b60006132d38482850161329a565b91505092915050565b600081519050919050565b600082825260208201905092915050565b60005b838110156133165780820151818401526020810190506132fb565b83811115613325576000848401525b50505050565b6000601f19601f8301169050919050565b6000613347826132dc565b61335181856132e7565b93506133618185602086016132f8565b61336a8161332b565b840191505092915050565b6000602082019050818103600083015261338f818461333c565b905092915050565b60008083601f8401126133ad576133ac6131c7565b5b8235905067ffffffffffffffff8111156133ca576133c96131cc565b5b6020830191508360018202830111156133e6576133e56131d1565b5b9250929050565b60008060208385031215613404576134036131bd565b5b600083013567ffffffffffffffff811115613422576134216131c2565b5b61342e85828601613397565b92509250509250929050565b600080fd5b7f4e487b7100000000000000000000000000000000000000000000000000000000600052604160045260246000fd5b6134778261332b565b810181811067ffffffffffffffff821117156134965761349561343f565b5b80604052505050565b60006134a96131b3565b90506134b5828261346e565b919050565b600065ffffffffffff82169050919050565b6134d5816134ba565b81146134e057600080fd5b50565b6000813590506134f2816134cc565b92915050565b600060a0828403121561350e5761350d61343a565b5b61351860a061349f565b90506000613528848285016134e3565b600083015250602061353c848285016134e3565b6020830152506040613550848285016134e3565b6040830152506060613564848285016134e3565b6060830152506080613578848285016134e3565b60808301525092915050565b600060a0828403121561359a576135996131bd565b5b60006135a8848285016134f8565b91505092915050565b60008060c083850312156135c8576135c76131bd565b5b60006135d68582860161329a565b92505060206135e7858286016134f8565b9150509250929050565b6135fa81613279565b82525050565b600060208201905061361560008301846135f1565b92915050565b600081519050919050565b600082825260208201905092915050565b60006136428261361b565b61364c8185613626565b935061365c8185602086016132f8565b6136658161332b565b840191505092915050565b6000602082019050818103600083015261368a8184613637565b905092915050565b60008083601f8401126136a8576136a76131c7565b5b8235905067ffffffffffffffff8111156136c5576136c46131cc565b5b6020830191508360018202830111156136e1576136e06131d1565b5b9250929050565b600080602083850312156136ff576136fe6131bd565b5b600083013567ffffffffffffffff81111561371d5761371c6131c2565b5b61372985828601613692565b92509250509250929050565b600060ff82169050919050565b61374b81613735565b811461375657600080fd5b50565b60008135905061376881613742565b92915050565b60008060408385031215613785576137846131bd565b5b600061379385828601613759565b92505060206137a48582860161329a565b9150509250929050565b60008115159050919050565b6137c3816137ae565b82525050565b60006020820190506137de60008301846137ba565b92915050565b60008083601f8401126137fa576137f96131c7565b5b8235905067ffffffffffffffff811115613817576138166131cc565b5b602083019150836020820283011115613833576138326131d1565b5b9250929050565b600080600060408486031215613853576138526131bd565b5b600061386186828701613759565b935050602084013567ffffffffffffffff811115613882576138816131c2565b5b61388e868287016137e4565b92509250509250925092565b600080fd5b600067ffffffffffffffff8211156138ba576138b961343f565b5b6138c38261332b565b9050602081019050919050565b82818337600083830152505050565b60006138f26138ed8461389f565b61349f565b90508281526020810184848401111561390e5761390d61389a565b5b6139198482856138d0565b509392505050565b600082601f830112613936576139356131c7565b5b81356139468482602086016138df565b91505092915050565b600080600060e08486031215613968576139676131bd565b5b600084013567ffffffffffffffff811115613986576139856131c2565b5b61399286828701613921565b935050602084013567ffffffffffffffff8111156139b3576139b26131c2565b5b6139bf86828701613921565b92505060406139d0868287016134f8565b9150509250925092565b600073ffffffffffffffffffffffffffffffffffffffff82169050919050565b6000613a05826139da565b9050919050565b613a15816139fa565b82525050565b6000602082019050613a306000830184613a0c565b92915050565b60008060208385031215613a4d57613a4c6131bd565b5b600083013567ffffffffffffffff811115613a6b57613a6a6131c2565b5b613a77858286016137e4565b92509250509250929050565b613a8c816139fa565b8114613a9757600080fd5b50565b600081359050613aa981613a83565b92915050565b600060208284031215613ac557613ac46131bd565b5b6000613ad384828501613a9a565b91505092915050565b600080600060408486031215613af557613af46131bd565b5b6000613b0386828701613759565b935050602084013567ffffffffffffffff811115613b2457613b236131c2565b5b613b3086828701613692565b92509250509250925092565b7f506172747320617265206c6f636b656400000000000000000000000000000000600082015250565b6000613b726010836132e7565b9150613b7d82613b3c565b602082019050919050565b60006020820190508181036000830152613ba181613b65565b9050919050565b7f4e487b7100000000000000000000000000000000000000000000000000000000600052603260045260246000fd5b600080fd5b600080fd5b600080fd5b60008083356001602003843603038112613c0357613c02613bd7565b5b80840192508235915067ffffffffffffffff821115613c2557613c24613bdc565b5b602083019250600182023603831315613c4157613c40613be1565b5b509250929050565b7f4e487b7100000000000000000000000000000000000000000000000000000000600052601160045260246000fd5b6000613c8382613279565b91507fffffffffffffffffffffffffffffffffffffffffffffffffffffffffffffffff821415613cb657613cb5613c49565b5b600182019050919050565b7f4e487b7100000000000000000000000000000000000000000000000000000000600052602260045260246000fd5b60006002820490506001821680613d0857607f821691505b60208210811415613d1c57613d1b613cc1565b5b50919050565b600081905092915050565b60008190508160005260206000209050919050565b60008154613d4f81613cf0565b613d598186613d22565b94506001821660008114613d745760018114613d8557613db8565b60ff19831686528186019350613db8565b613d8e85613d2d565b60005b83811015613db057815481890152600182019150602081019050613d91565b838801955050505b50505092915050565b6000613dcc826132dc565b613dd68185613d22565b9350613de68185602086016132f8565b80840191505092915050565b6000613dfe8285613d42565b9150613e0a8284613dc1565b91508190509392505050565b6000613e2283856132e7565b9350613e2f8385846138d0565b613e388361332b565b840190509392505050565b60006020820190508181036000830152613e5e818486613e16565b90509392505050565b7f4e6f756e20000000000000000000000000000000000000000000000000000000600082015250565b6000613e9d600583613d22565b9150613ea882613e67565b600582019050919050565b6000613ebe82613e90565b9150613eca8284613dc1565b915081905092915050565b7f2069732061206d656d626572206f6620746865204e6f756e732044414f000000600082015250565b6000613f0b601d83613d22565b9150613f1682613ed5565b601d82019050919050565b6000613f2c82613e90565b9150613f388284613dc1565b9150613f4382613efe565b915081905092915050565b6000613f5982613279565b9150613f6483613279565b9250827fffffffffffffffffffffffffffffffffffffffffffffffffffffffffffffffff03821115613f9957613f98613c49565b5b828201905092915050565b7f50616c65747465732063616e206f6e6c7920686f6c642032353620636f6c6f7260008201527f7300000000000000000000000000000000000000000000000000000000000000602082015250565b60006140006021836132e7565b915061400b82613fa4565b604082019050919050565b6000602082019050818103600083015261402f81613ff3565b9050919050565b6000808335600160200384360303811261405357614052613bd7565b5b80840192508235915067ffffffffffffffff82111561407557614074613bdc565b5b60208301925060018202360383131561409157614090613be1565b5b509250929050565b7f4f776e61626c653a206e6577206f776e657220697320746865207a65726f206160008201527f6464726573730000000000000000000000000000000000000000000000000000602082015250565b60006140f56026836132e7565b915061410082614099565b604082019050919050565b60006020820190508181036000830152614124816140e8565b9050919050565b7f4f776e61626c653a2063616c6c6572206973206e6f7420746865206f776e6572600082015250565b60006141616020836132e7565b915061416c8261412b565b602082019050919050565b6000602082019050818103600083015261419081614154565b9050919050565b7f4e487b7100000000000000000000000000000000000000000000000000000000600052601260045260246000fd5b60006141d182613279565b91506141dc83613279565b9250826141ec576141eb614197565b5b828204905092915050565b600061420282613279565b915061420d83613279565b9250828210156142205761421f613c49565b5b828203905092915050565b600061423682613279565b915061424183613279565b92508261425157614250614197565b5b828206905092915050565b7f7b226e616d65223a220000000000000000000000000000000000000000000000600082015250565b6000614292600983613d22565b915061429d8261425c565b600982019050919050565b7f222c20226465736372697074696f6e223a220000000000000000000000000000600082015250565b60006142de601283613d22565b91506142e9826142a8565b601282019050919050565b7f222c2022696d616765223a202200000000000000000000000000000000000000600082015250565b600061432a600d83613d22565b9150614335826142f4565b600d82019050919050565b7f646174613a696d6167652f7376672b786d6c3b6261736536342c000000000000600082015250565b6000614376601a83613d22565b915061438182614340565b601a82019050919050565b7f227d000000000000000000000000000000000000000000000000000000000000600082015250565b60006143c2600283613d22565b91506143cd8261438c565b600282019050919050565b60006143e382614285565b91506143ef8286613dc1565b91506143fa826142d1565b91506144068285613dc1565b91506144118261431d565b915061441c82614369565b91506144288284613dc1565b9150614433826143b5565b9150819050949350505050565b7f646174613a6170706c69636174696f6e2f6a736f6e3b6261736536342c000000600082015250565b6000614476601d83613d22565b915061448182614440565b601d82019050919050565b600061449782614469565b91506144a38284613dc1565b915081905092915050565b7f3c7376672077696474683d2233323022206865696768743d223332302220766960008201527f6577426f783d2230203020333230203332302220786d6c6e733d22687474703a60208201527f2f2f7777772e77332e6f72672f323030302f737667222073686170652d72656e60408201527f646572696e673d2263726973704564676573223e000000000000000000000000606082015250565b6000614556607483613d22565b9150614561826144ae565b607482019050919050565b7f3c726563742077696474683d223130302522206865696768743d22313030252260008201527f2066696c6c3d2223000000000000000000000000000000000000000000000000602082015250565b60006145c8602883613d22565b91506145d38261456c565b602882019050919050565b7f22202f3e00000000000000000000000000000000000000000000000000000000600082015250565b6000614614600483613d22565b915061461f826145de565b600482019050919050565b7f3c2f7376673e0000000000000000000000000000000000000000000000000000600082015250565b6000614660600683613d22565b915061466b8261462a565b600682019050919050565b600061468182614549565b915061468c826145bb565b91506146988285613dc1565b91506146a382614607565b91506146af8284613dc1565b91506146ba82614653565b91508190509392505050565b60006146d182613279565b91506146dc83613279565b9250817fffffffffffffffffffffffffffffffffffffffffffffffffffffffffffffffff048311821515161561471557614714613c49565b5b828202905092915050565b600061472c8285613dc1565b91506147388284613dc1565b91508190509392505050565b600061474f82613735565b915060ff82141561476357614762613c49565b5b600182019050919050565b600061477982613735565b915061478483613735565b92508282101561479757614796613c49565b5b828203905092915050565b7f3c726563742077696474683d2200000000000000000000000000000000000000600082015250565b60006147d8600d83613d22565b91506147e3826147a2565b600d82019050919050565b7f22206865696768743d2231302220783d22000000000000000000000000000000600082015250565b6000614824601183613d22565b915061482f826147ee565b601182019050919050565b7f2220793d22000000000000000000000000000000000000000000000000000000600082015250565b6000614870600583613d22565b915061487b8261483a565b600582019050919050565b7f222066696c6c3d22230000000000000000000000000000000000000000000000600082015250565b60006148bc600983613d22565b91506148c782614886565b600982019050919050565b60006148de8288613dc1565b91506148e9826147cb565b91506148f58287613dc1565b915061490082614817565b915061490c8286613dc1565b915061491782614863565b91506149238285613dc1565b915061492e826148af565b915061493a8284613dc1565b915061494582614607565b9150819050969550505050505056fe4142434445464748494a4b4c4d4e4f505152535455565758595a6162636465666768696a6b6c6d6e6f707172737475767778797a303132333435363738392b2fa2646970667358221220555076224a91c09000a9fa1559464b06c49aecae3c2eeb8134be11d49c7bee9664736f6c63430008090033",
  "devdoc": {
    "kind": "dev",
    "methods": {
      "addAccessory(bytes)": {
        "details": "This function can only be called by the owner when not locked."
      },
      "addBackground(string)": {
        "details": "This function can only be called by the owner when not locked."
      },
      "addBody(bytes)": {
        "details": "This function can only be called by the owner when not locked."
      },
      "addColorToPalette(uint8,string)": {
        "details": "This function can only be called by the owner."
      },
      "addGlasses(bytes)": {
        "details": "This function can only be called by the owner when not locked."
      },
      "addHead(bytes)": {
        "details": "This function can only be called by the owner when not locked."
      },
      "addManyAccessories(bytes[])": {
        "details": "This function can only be called by the owner when not locked."
      },
      "addManyBackgrounds(string[])": {
        "details": "This function can only be called by the owner when not locked."
      },
      "addManyBodies(bytes[])": {
        "details": "This function can only be called by the owner when not locked."
      },
      "addManyColorsToPalette(uint8,string[])": {
        "details": "This function can only be called by the owner."
      },
      "addManyGlasses(bytes[])": {
        "details": "This function can only be called by the owner when not locked."
      },
      "addManyHeads(bytes[])": {
        "details": "This function can only be called by the owner when not locked."
      },
      "lockParts()": {
        "details": "This cannot be reversed and can only be called by the owner when not locked."
      },
      "owner()": {
        "details": "Returns the address of the current owner."
      },
      "renounceOwnership()": {
        "details": "Leaves the contract without owner. It will not be possible to call `onlyOwner` functions anymore. Can only be called by the current owner. NOTE: Renouncing ownership will leave the contract without an owner, thereby removing any functionality that is only available to the owner."
      },
      "setBaseURI(string)": {
        "details": "This can only be called by the owner."
      },
      "toggleDataURIEnabled()": {
        "details": "This can only be called by the owner."
      },
      "tokenURI(uint256,(uint48,uint48,uint48,uint48,uint48))": {
        "details": "The returned value may be a base64 encoded data URI or an API URL."
      },
      "transferOwnership(address)": {
        "details": "Transfers ownership of the contract to a new account (`newOwner`). Can only be called by the current owner."
      }
    },
    "version": 1
  },
  "userdoc": {
    "kind": "user",
    "methods": {
      "accessoryCount()": {
        "notice": "Get the number of available Noun `accessories`."
      },
      "addAccessory(bytes)": {
        "notice": "Add a Noun accessory."
      },
      "addBackground(string)": {
        "notice": "Add a Noun background."
      },
      "addBody(bytes)": {
        "notice": "Add a Noun body."
      },
      "addColorToPalette(uint8,string)": {
        "notice": "Add a single color to a color palette."
      },
      "addGlasses(bytes)": {
        "notice": "Add Noun glasses."
      },
      "addHead(bytes)": {
        "notice": "Add a Noun head."
      },
      "addManyAccessories(bytes[])": {
        "notice": "Batch add Noun accessories."
      },
      "addManyBackgrounds(string[])": {
        "notice": "Batch add Noun backgrounds."
      },
      "addManyBodies(bytes[])": {
        "notice": "Batch add Noun bodies."
      },
      "addManyColorsToPalette(uint8,string[])": {
        "notice": "Add colors to a color palette."
      },
      "addManyGlasses(bytes[])": {
        "notice": "Batch add Noun glasses."
      },
      "addManyHeads(bytes[])": {
        "notice": "Batch add Noun heads."
      },
      "backgroundCount()": {
        "notice": "Get the number of available Noun `backgrounds`."
      },
      "bodyCount()": {
        "notice": "Get the number of available Noun `bodies`."
      },
      "dataURI(uint256,(uint48,uint48,uint48,uint48,uint48))": {
        "notice": "Given a token ID and seed, construct a base64 encoded data URI for an official Nouns DAO noun."
      },
      "generateSVGImage((uint48,uint48,uint48,uint48,uint48))": {
        "notice": "Given a seed, construct a base64 encoded SVG image."
      },
      "genericDataURI(string,string,(uint48,uint48,uint48,uint48,uint48))": {
        "notice": "Given a name, description, and seed, construct a base64 encoded data URI."
      },
      "glassesCount()": {
        "notice": "Get the number of available Noun `glasses`."
      },
      "headCount()": {
        "notice": "Get the number of available Noun `heads`."
      },
      "lockParts()": {
        "notice": "Lock all Noun parts."
      },
      "setBaseURI(string)": {
        "notice": "Set the base URI for all token IDs. It is automatically added as a prefix to the value returned in {tokenURI}, or to the token ID if {tokenURI} is empty."
      },
      "toggleDataURIEnabled()": {
        "notice": "Toggle a boolean value which determines if `tokenURI` returns a data URI or an HTTP URL."
      },
      "tokenURI(uint256,(uint48,uint48,uint48,uint48,uint48))": {
        "notice": "Given a token ID and seed, construct a token URI for an official Nouns DAO noun."
      }
    },
    "version": 1
  },
  "storageLayout": {
    "storage": [
      {
        "astId": 7,
        "contract": "contracts/NounsDescriptor.sol:NounsDescriptor",
        "label": "_owner",
        "offset": 0,
        "slot": "0",
        "type": "t_address"
      },
      {
        "astId": 502,
        "contract": "contracts/NounsDescriptor.sol:NounsDescriptor",
        "label": "arePartsLocked",
        "offset": 20,
        "slot": "0",
        "type": "t_bool"
      },
      {
        "astId": 506,
        "contract": "contracts/NounsDescriptor.sol:NounsDescriptor",
        "label": "isDataURIEnabled",
        "offset": 21,
        "slot": "0",
        "type": "t_bool"
      },
      {
        "astId": 509,
        "contract": "contracts/NounsDescriptor.sol:NounsDescriptor",
        "label": "baseURI",
        "offset": 0,
        "slot": "1",
        "type": "t_string_storage"
      },
      {
        "astId": 515,
        "contract": "contracts/NounsDescriptor.sol:NounsDescriptor",
        "label": "palettes",
        "offset": 0,
        "slot": "2",
        "type": "t_mapping(t_uint8,t_array(t_string_storage)dyn_storage)"
      },
      {
        "astId": 519,
        "contract": "contracts/NounsDescriptor.sol:NounsDescriptor",
        "label": "backgrounds",
        "offset": 0,
        "slot": "3",
        "type": "t_array(t_string_storage)dyn_storage"
      },
      {
        "astId": 523,
        "contract": "contracts/NounsDescriptor.sol:NounsDescriptor",
        "label": "bodies",
        "offset": 0,
        "slot": "4",
        "type": "t_array(t_bytes_storage)dyn_storage"
      },
      {
        "astId": 527,
        "contract": "contracts/NounsDescriptor.sol:NounsDescriptor",
        "label": "accessories",
        "offset": 0,
        "slot": "5",
        "type": "t_array(t_bytes_storage)dyn_storage"
      },
      {
        "astId": 531,
        "contract": "contracts/NounsDescriptor.sol:NounsDescriptor",
        "label": "heads",
        "offset": 0,
        "slot": "6",
        "type": "t_array(t_bytes_storage)dyn_storage"
      },
      {
        "astId": 535,
        "contract": "contracts/NounsDescriptor.sol:NounsDescriptor",
        "label": "glasses",
        "offset": 0,
        "slot": "7",
        "type": "t_array(t_bytes_storage)dyn_storage"
      }
    ],
    "types": {
      "t_address": {
        "encoding": "inplace",
        "label": "address",
        "numberOfBytes": "20"
      },
      "t_array(t_bytes_storage)dyn_storage": {
        "base": "t_bytes_storage",
        "encoding": "dynamic_array",
        "label": "bytes[]",
        "numberOfBytes": "32"
      },
      "t_array(t_string_storage)dyn_storage": {
        "base": "t_string_storage",
        "encoding": "dynamic_array",
        "label": "string[]",
        "numberOfBytes": "32"
      },
      "t_bool": {
        "encoding": "inplace",
        "label": "bool",
        "numberOfBytes": "1"
      },
      "t_bytes_storage": {
        "encoding": "bytes",
        "label": "bytes",
        "numberOfBytes": "32"
      },
      "t_mapping(t_uint8,t_array(t_string_storage)dyn_storage)": {
        "encoding": "mapping",
        "key": "t_uint8",
        "label": "mapping(uint8 => string[])",
        "numberOfBytes": "32",
        "value": "t_array(t_string_storage)dyn_storage"
      },
      "t_string_storage": {
        "encoding": "bytes",
        "label": "string",
        "numberOfBytes": "32"
      },
      "t_uint8": {
        "encoding": "inplace",
        "label": "uint8",
        "numberOfBytes": "1"
      }
    }
  }
}